:100000000C94F2010C941A020C941A020C941A0229
:100010000C941A020C941A020C941A020C94C40840
:100020000C941A020C941A020C941A020C941A02E0
:100030000C941A020C9497080C941A020C941A024D
:100040000C944D080C941A020C941A020C941A0287
:100050000C941A020C941A020C941A020C941A02B0
:100060000C941A020C941A02000000000000005FB9
:1000700000000007000700147F147F14242A7F2A41
:10008000122313086462364955225000050300000C
:10009000001C2241000041221C00082A1C2A0808DA
:1000A000083E0808005030000008080808080060F2
:1000B00060000020100804023E5149453E00427F86
:1000C000400042615149462141454B311814127F8D
:1000D0001027454545393C4A494930017109050316
:1000E0003649494936064949291E0036360000007E
:1000F000563600000008142241141414141441222E
:100100001408000201510906324979413E7E11115D
:10011000117E7F494949363E414141227F4141227A
:100120001C7F494949417F090901013E4141513242
:100130007F0808087F00417F41002040413F017F48
:10014000081422417F404040407F0204027F7F0428
:1001500008107F3E4141413E7F090909063E415159
:10016000215E7F09192946464949493101017F012C
:10017000013F4040403F1F2040201F7F2018207F2C
:100180006314081463030478040361514945430070
:10019000007F4141020408102041417F0000040219
:1001A0000102044040404040000102040020545439
:1001B00054787F48444438384444442038444448C0
:1001C0007F3854545418087E090102081454543CD2
:1001D0007F0804047800447D40002040443D000036
:1001E0007F10284400417F40007C041804787C087C
:1001F00004047838444444387C1414140808141453
:10020000187C7C080404084854545420043F44409B
:10021000203C4040207C1C2040201C3C4030403C86
:1002200044281028440C5050503C4464544C440022
:100230000836410000007F00000041360800080831
:100240002A1C08081C2A08087C1414140838444482
:10025000442004047C04040C5050503C3048FC48BA
:100260003044281028447C404040FC0C1010107C86
:100270007C407C407C7C407C40FC047C5050207C5A
:100280005050207C7C5050200028445454387C101E
:10029000384438085434147C7E1111117E7F49494A
:1002A00049337F494949367F01010103E0514F41FC
:1002B000FF7F4949494177087F08774149494936D5
:1002C0007F1008047F7C2112097C7F0814224120C2
:1002D000413F017F7F020C027F7F0808087F3E417B
:1002E00041413E7F0101017F7F090909063E4141ED
:1002F000412201017F010147281008071C227F22AB
:100300001C63140814637F404040FF070808087FFF
:100310007F407F407F7F407F40FF017F4848307FA4
:100320004830007F007F484830224149493E7F08DD
:100330003E413E462919097F20545454783C4A4A8C
:1003400049317C545428007C0404040CE0544C448F
:10035000FC38545454186C107C106C444454542889
:100360007C2010087C7C4122117C7C1028440020D9
:10037000443C047C7C0810087C7C1010107C3844C1
:100380004444387C0404047C00000000240027005E
:100390002A000000000023002600290000000008B9
:1003A000000201000003040700000000000000003C
:1003B00001020408102040800102040810200102FC
:1003C0000408102000000000250028002B00040471
:1003D00004040404040402020202020203030303ED
:1003E0000303131111241FBECFEFD8E0DEBFCDBF32
:1003F00013E0A0E0B1E0EAEBF7E202C005900D9255
:10040000A233B107D9F726E0A2E3B3E001C01D9201
:10041000A234B207E1F711E0C2EFD1E004C02197A6
:10042000FE010E94D013C13FD107C9F70E943D09C8
:100430000C94DB130C94000028E030E040E8E091DD
:100440003806F0913906508190913F06909595239A
:100450009083E0913606F091370690913E06582F32
:10046000542389F05081952B9083E0913806F091C8
:100470003906908150913F06952B908346952150E7
:100480003109E9F60895508190959523EDCFAF920B
:10049000BF92CF92DF92EF92FF920F931F93CF9371
:1004A000DF936C017B018B01040F151FEB015E01D3
:1004B000AE18BF08C017D10759F06991D601ED9168
:1004C000FC910190F081E02DC6010995892B79F707
:1004D000C501DF91CF911F910F91FF90EF90DF90B9
:1004E000CF90BF90AF900895833081F028F4813091
:1004F00099F08230A9F008958730A9F08830C9F0CA
:100500008430B1F4809180008F7D03C080918000A1
:100510008F7780938000089584B58F7784BD089588
:1005200084B58F7DFBCF8091B0008F778093B00032
:1005300008958091B0008F7DF9CFCF93DF93282F5E
:1005400030E0F901E456FC4F8491F901E055FC4F8D
:10055000D491F901E253FC4FC491CC23A1F0811155
:100560000E947402EC2FF0E0EE0FFF1FEE56FC4FDE
:10057000A591B491EC91ED2381E090E009F480E045
:10058000DF91CF91089580E090E0FACF1F93CF9351
:10059000DF93282F30E0F901E456FC4F8491F901F4
:1005A000E055FC4FD491F901E253FC4FC491CC23A8
:1005B000A9F0162F81110E947402EC2FF0E0EE0FCB
:1005C000FF1FEC53FC4FA591B4918FB7F894EC91B9
:1005D000111108C0D095DE23DC938FBFDF91CF913E
:1005E0001F910895DE2BF8CFCF93C82F60E0809144
:1005F00033060E94C6028091350618161CF460E08E
:100600000E94C6028C2F0E941C028091350618168B
:1006100024F461E0CF910C94C602CF910895EF923B
:10062000FF920F931F93CF93DF9303E011E0C0E09D
:100630008C2F80640E94F40280E80E94F40261E042
:10064000809133060E94C6028091350618161CF46C
:1006500060E00E94C6027801D4E5F70181917F0134
:100660000E941C02D150C9F78091350618161CF45F
:1006700061E00E94C602CF5F0C5A1F4FC630C1F620
:1006800080E4DF91CF911F910F91FF90EF900C9438
:10069000F402CF93DF9390E0FC01E055FC4F2491EE
:1006A00082539C4FFC0184918823D1F090E0880F05
:1006B000991FFC01E857FC4FA591B491FC01EC5344
:1006C000FC4FC591D49161110EC09FB7F8948C91E5
:1006D000E22FE0958E238C932881E223E8839FBF4D
:1006E000DF91CF9108958FB7F894EC91E22BEC93C2
:1006F0008FBFF6CF3FB7F8948091390390913A03BA
:10070000A0913B03B0913C0326B5A89B05C02F3FA9
:1007100019F00196A11DB11D3FBFBA2FA92F982F27
:100720008827BC01CD01620F711D811D911D42E022
:10073000660F771F881F991F4A95D1F708958F92EA
:100740009F92AF92BF92CF92DF92EF92FF924B01B6
:100750005C010E947A036B017C010E947A036C1990
:100760007D098E099F09683E734081059105A8F3B4
:1007700021E0821A9108A108B10888EEC80E83E032
:10078000D81EE11CF11C81149104A104B10429F7C5
:10079000FF90EF90DF90CF90BF90AF909F908F90A1
:1007A0000895D9016435710500F540335105E8F429
:1007B000CA0123E0959587952A95E1F724E5289FBE
:1007C000F001299FF00D1124E60FF71FED5FFE4F9A
:1007D00030814770552781E090E001C0880F4A952D
:1007E000EAF7AB2B19F0832B808308958095832340
:1007F000FBCF08952F923F924F925F926F927F921C
:100800008F929F92AF92BF92CF92DF92EF92FF9220
:100810000F931F93CF93DF93CDB7DEB72C970FB60F
:10082000F894DEBF0FBECDBF20EE260F203A08F0B1
:1008300007C19C878B87DC011C96CD90DC901D97AF
:1008400018968D919C911997C816D9060CF085C001
:100850001E968D909C901F971A968D919C911B9738
:10086000881699060CF079C05496BC91B983AB2ECA
:10087000B12CC601E6E0BE9F800D911D1124181613
:1008800019060CF06AC0C50123E0880F991F2A954C
:10089000E1F7880D991D181619060CF05EC0AB859E
:1008A000BC8552960D90BC91A02DBC83AB83EB858B
:1008B000FC850088F189E02DFE83ED836052770B83
:1008C00025E0269FC001279F900D112426011A8242
:1008D0008C199D099C0128593F4F3A8729873A81F5
:1008E000E0E0353029F0E985FA85E40DF51DE49165
:1008F0001401712C612C8E2F90E098878F83E0FF7C
:1009000084C0AB85BC85ED91FC91B981B13009F013
:100910006FC00084F185E02D2D813E81A301480D3B
:10092000591DB2018B859C850995EF81F885F59558
:10093000E795FFEF6F1A7F0A2A0C3B1C28E062162E
:100940007104C9F63FEF431A530ACA0CDB1C5A81E3
:100950005F5F5A83563009F0C2CFAB85BC85549691
:100960004C915497242F30E01C968D919C91B6E0C9
:100970004B9F800D911D1124EB85FC859587848705
:1009800046894423D1F06AEF6203A001639F500DB2
:10099000112460857185460F571F481759076CF45D
:1009A00083E0220F331F8A95E1F786859785280F0C
:1009B000391F378726871586148681E090E02C96AC
:1009C0000FB6F894DEBF0FBECDBFDF91CF911F9160
:1009D0000F91FF90EF90DF90CF90BF90AF909F90DE
:1009E0008F907F906F905F904F903F902F900895E1
:1009F0000288F389E02DED80FE8085019501A1013B
:100A0000B6018B859C85099590CFEB81FC812D816A
:100A10003E81E217F30709F488CFAB85BC85ED91E1
:100A2000FC91B981B13031F40084F185E02D2B8146
:100A30003C8174CF0288F389E02DEB80FC80DDCF10
:100A4000BECFEF92FF920F931F93DC011A960D9188
:100A50001C911B9718962D913C911997ED91FC9143
:100A60000288F389E02D7B0150E040E070E060E017
:100A700009951F910F91FF90EF9008956F927F92CB
:100A80008F929F92AF92BF92CF92DF92EF92FF929E
:100A90000F931F93CF93DF936C015A014801EB0131
:100AA0003B01620E731EC615D70574F4D601ED9195
:100AB000FC910484F585E02D87019401A501BE0118
:100AC000C60109952196EFCFDF91CF911F910F912C
:100AD000FF90EF90DF90CF90BF90AF909F908F905E
:100AE0007F906F900895EF92FF920F931F93260FC0
:100AF000371F21503109DC01ED91FC910284F3850F
:100B0000E02D78018A0109951F910F91FF90EF90D8
:100B10000895EF92FF920F931F93240F351F2150DA
:100B20003109DC01ED91FC910284F385E02D78011F
:100B300089019B0109951F910F91FF90EF900895F6
:100B40002F923F924F925F926F927F928F929F92DD
:100B5000AF92BF92CF92DF92EF92FF920F931F93CB
:100B6000CF93DF9300D000D000D0CDB7DEB73C01EB
:100B70007E836D834A019B01220F331F2F5F3F4FFE
:100B8000A301461B570B840160E570E08AE196E003
:100B90000E94890581E090E07C012D813E81E21A6E
:100BA000F30A1901319421943108220C331CAA2430
:100BB000A394B12CD12CC12CF7FC0BC04D815E81CC
:100BC000415051095E834D8352E0250E311CE20CE9
:100BD000F31C8FEFC81AD80A92E0A90EB11CEA0CD8
:100BE000FB1C4D805E80440C551C2FEF421A520AAC
:100BF000B601605B7F4F84019201A3018D819E81CC
:100C0000481B590B5A8349838AE196E00E94890563
:100C100093012C193D093C832B8395014B815C8109
:100C20006D817E81605B7F4F8AE196E00E9489053D
:100C300060E570E06C197D09920149815A818AE171
:100C400096E00E94890595014B815C8160E570E02A
:100C50008D819E81681B790B8AE196E00E9489054F
:100C60002D813E81C216D3060CF4A6CF26960FB670
:100C7000F894DEBF0FBECDBFDF91CF911F910F91D2
:100C8000FF90EF90DF90CF90BF90AF909F908F90AC
:100C90007F906F905F904F903F902F9008956F924C
:100CA0007F928F929F92AF92BF92CF92DF92EF92FC
:100CB000FF920F931F93CF93DF93EC016B015A01C7
:100CC00039014801E881F9810684F785E02D870123
:100CD0000995A501480D591D41505109E881F98137
:100CE0000684F785E02D9301B601CE010995E881D0
:100CF000F9810484F585E02D9401A501B601CE01AA
:100D00000995C60CD71CB60161507109E881F981BB
:100D10000484F585E02D9401A501CE010995DF91AC
:100D2000CF911F910F91FF90EF90DF90CF90BF90E8
:100D3000AF909F908F907F906F9008952F923F92E9
:100D40004F925F926F927F928F929F92AF92BF92DB
:100D5000CF92DF92EF92FF920F931F93CF93DF9387
:100D600000D000D000D0CDB7DEB73C016A013E8391
:100D70002D83FC82EB825801A41AB50AB7FE03C08A
:100D8000B194A194B1088D809E80861A970A97FE2F
:100D900003C09194819491088A149B045CF0902F75
:100DA000812F0D811E819D838E839C2D8D2D6B0146
:100DB000692F782F0C151D055CF09D818E817E8337
:100DC0006D83692F782F902F812F8601C92ED82E01
:100DD0001601201A310A2B012D813E81421A530A35
:100DE00057FE03C0519441945108710137FE03C06E
:100DF0003FEFE31AF30AF594E7948D819E818617FD
:100E000097075CF5A1E0B0E0BA83A983C016D106CC
:100E10004CF1D301ED91FC910084F185E02D2B8103
:100E20003C81A8016D817E818A149B041CF04D8158
:100E30005E81B801C3010995E418F508F7FE0AC000
:100E40002D813E8189819A81280F391F3E832D8310
:100E5000E20CF31C0F5F1F4FD9CF2FEF3FEF3A8308
:100E60002983D4CF26960FB6F894DEBF0FBECDBF30
:100E7000DF91CF911F910F91FF90EF90DF90CF9076
:100E8000BF90AF909F908F907F906F905F904F90AA
:100E90003F902F900895089590E080E00895FC0120
:100EA00001900020E9F73197AF01481B590BBC01B5
:100EB0008AE196E00C9447028F929F92AF92BF9284
:100EC0000F931F93CF93DF93CDB7DEB7A1970FB6E4
:100ED000F894DEBF0FBECDBF19A2423008F44AE03D
:100EE0008E010F5D1F4F842E912CB12CA12CA501DA
:100EF00094010E948F13E62FB901CA01EA30F4F47D
:100F0000E05DD801EE938D01232B242B252B79F75F
:100F100090E080E0109719F0CD010E944F07A19654
:100F20000FB6F894DEBF0FBECDBFDF91CF911F91FA
:100F30000F91BF90AF909F908F900895E95CE1CFA3
:100F40000C944F078F929F92AF92BF92CF92DF92F5
:100F5000EF92FF92CF93DF936B017C01AC019B0179
:100F60000E947E13882371F087E193E0DF91CF9197
:100F7000FF90EF90DF90CF90BF90AF909F908F90B9
:100F80000C944F0746015701E894B7F82FEF3FEF55
:100F90004FE75FE7C501B4010E947E1381110DC0C8
:100FA0002FEF3FEF4FE75FE7C501B4010E94AD119E
:100FB00018161CF48BE193E0D9CF2FEF3FEF4FE7EA
:100FC0005FE4C701B6010E940C1318161CF48FE1F0
:100FD00093E0CCCF2FEF3FEF4FE75FECC701B601B7
:100FE0000E94AD1187FDF3CF20E030E0A901C701D9
:100FF000B6010E94AD11D0E0C0E087FF0AC06DE2EB
:101000008AE196E00E94FA03EC01F7FAF094F7F80F
:10101000F0942DEC3CEC4CE45DE3C701B6010E947A
:1010200041114B015C010E942B126B017C010E945B
:101030005A129B01AC01C501B4010E9440114B0141
:101040005C014AE0C701B6010E945C07C80FD91FC6
:101050006EE28AE196E00E94FA03C80FD91F20E0F1
:1010600030E040E251E4C501B4010E9411130E9436
:101070002B1290E080E04AE00E945C078C0F9D1FDD
:10108000DF91CF91FF90EF90DF90CF90BF90AF9026
:101090009F908F9008950E94D6131F920F920FB6C3
:1010A0000F9211242F933F938F939F93AF93BF93EE
:1010B0008091350390913603A0913703B0913803A6
:1010C0003091340323E0230F2D3758F50196A11DED
:1010D000B11D209334038093350390933603A0937E
:1010E0003703B09338038091390390913A03A0916C
:1010F0003B03B0913C030196A11DB11D80933903C0
:1011000090933A03A0933B03B0933C03BF91AF91FC
:101110009F918F913F912F910F900FBE0F901F9035
:10112000189526E8230F0296A11DB11DD2CF1F925C
:101130000F920FB60F9211242F933F934F935F930B
:101140006F937F938F939F93AF93BF93EF93FF938F
:1011500080913203909133039093850080938400B3
:10116000F0E0E0E00995FF91EF91BF91AF919F9181
:101170008F917F916F915F914F913F912F910F9040
:101180000FBE0F901F9018951F920F920FB60F92DF
:1011900011240F931F932F933F934F935F936F935C
:1011A0007F938F939F93AF93BF932091840030914F
:1011B0008500B09B0BC081E086BB80914403909179
:1011C0004503019690934503809344038091460321
:1011D00090914703019640913E0350913F0384173D
:1011E000950708F445C0109247031092460380917A
:1011F000440390914503B0E0A0E0DC0199278827E3
:10120000820F931FA11DB11D4091400350914103D6
:1012100060914203709143038C019D01041B150BE7
:10122000260B370BB901A80140934803509349039B
:1012300060934A0370934B03809340039093410360
:10124000A0934203B093430381E080934C03BF918A
:10125000AF919F918F917F916F915F914F913F914E
:101260002F911F910F910F900FBE0F901F90189507
:101270009093470380934603EACFCF93DF9300D048
:1012800000D0CDB7DEB7789484B5826084BD84B5D4
:10129000816084BD85B5826085BD85B5816085BD71
:1012A00080916E00816080936E0010928100809129
:1012B00081008260809381008091810081608093B1
:1012C0008100809180008160809380008091B100D6
:1012D00084608093B1008091B00081608093B00001
:1012E00080917A00846080937A0080917A00826095
:1012F00080937A0080917A00816080937A00809157
:101300007A00806880937A001092C10060E082E1E8
:101310000E94490361E0809131060E94490361E027
:10132000809132060E94490361E0809133060E9459
:1013300049038091340618161CF461E00E944903A9
:101340008091350618161CF461E00E9449038091D3
:10135000340618168CF460E00E94C6022FEF39E6BE
:1013600048E1215030404040E1F700C0000061E01A
:10137000809134060E94C60280913206082E000C2D
:10138000990BFC01E253FC4FE491F0E0EE0FFF1FDC
:10139000EC53FC4F25913491309339062093380655
:1013A000FC01E055FC4FE491E0933F06809131064B
:1013B000082E000C990BFC01E253FC4FE491F0E085
:1013C000EE0FFF1FEC53FC4F2591349130933706FD
:1013D00020933606FC01E055FC4FE491E0933E0675
:1013E00080913506082E000C990BFC01E253FC4F4E
:1013F000E491F0E0EE0FFF1FEC53FC4F2591349188
:1014000030933B0620933A06FC01E055FC4FE491F3
:10141000E093400680913306082E000C990BFC01E6
:10142000E253FC4FE491F0E0EE0FFF1FEC53FC4F52
:101430002591349130933D0620933C06FC01E05504
:10144000FC4FE491E093410681E20E94F40284E1C2
:101450000E94F40288EA0E94F40280E20E94F402F0
:101460008CE00E94F4020E940F0381E20E94F402C9
:1014700084EB0E94F40280E20E94F402109247037F
:1014800010924603109245031092440310924003B9
:1014900010924103109242031092430310924C03A6
:1014A00080918000809181001092810010928000D4
:1014B000109285001092840081E086BB10926F002C
:1014C0008091B0008091B1001092B10082E08093D1
:1014D000B0009CE79093B30097E090933D0387BBE7
:1014E0001092B2002DE730E030933F0320933E038B
:1014F0002FB7F89483BD30913D033093B1008093B2
:1015000070008BE08150F1F7909381002FBF81E054
:1015100090E090932D0680932C0690932B06809359
:101520002A0664EF71E080E090E00E949F0358E19A
:10153000852E56E0952E6FE2C62ED12C70E3A72E95
:10154000B12C80910201811103C083EE80937C0055
:1015500080910201882319F083E680937C0065E086
:1015600070E080E090E00E949F0380911906811155
:1015700058C080910001863018F082EE80937A0086
:1015800080910001853019F483EE80937A00809178
:101590000001843019F484EE80937A008091000178
:1015A000833019F485EE80937A00809100018230B7
:1015B00019F486EE80937A0080910001823018F44D
:1015C00087EE80937A0080910001811115C0ECE5CF
:1015D000F3E080917A0084FFFCCF80917A008061F3
:1015E00080937A008BEC97E00197F1F78091790076
:1015F00081938E169F0669F780910001882389F0F8
:10160000ECE5F3E080917A0084FFFCCF80917A00D2
:10161000806180937A008091790081938E169F0675
:1016200089F78091010150915B0390E040E021E057
:1016300030E041110DC0F901E45AFC4F6081681798
:1016400008F0E9C591E0861718F4522F91E041E0C7
:101650002F5F3F4F2F3F310561F750935B031DE52F
:10166000212E13E0312E6BE574E0F10150E040E0F3
:10167000219130E0421753070CF4A9016E177F0740
:10168000B9F750935A034093590390911906911159
:1016900090C0E3E0F1E028EF31E0DF01A9011D9205
:1016A00041505040E1F71092270610922606109202
:1016B00029061092280667E00E94831341E050E05B
:1016C00062E070E0D601A81BB109CD010E94A0051F
:1016D00083E080935803B0915B03EB2FF0E0E45A72
:1016E000FC4FFA83E983B7E07B2E80915B0390E0A7
:1016F000815B9F4F29813A812C5533408217930794
:101700000CF455C09091000180915803973008F077
:1017100045C08F5F80935803A981BA81E091580337
:10172000F0E09D012F5F3F4F3A83298311968C9102
:101730001197672D0E9483138601081B11099F01D1
:101740002F5F3F4F8C910E948313A601481B5109C4
:10175000EE24E394F12CBF018AE196E00E949E06FC
:10176000E0915803F0E0A981BA818C91672D0E9425
:1017700083138501081B11099F012E5F3F4F1197AD
:101780008C910E948313A501481B5109BF016F5F13
:101790007F4F8AE196E00E949E06A7CF973011F412
:1017A0008E5FB8CF983009F0B7CF8D5FB3CF10926E
:1017B0005B0380911906882309F4B7C0E3E0F1E0E8
:1017C00088EF91E0DF019C011D9221503040E1F74C
:1017D00010922706109226061092290610922806CB
:1017E000609156037091570377FF02C0695F7F4F86
:1017F000E3E075956795EA95E1F79B012A5F3F4F16
:10180000EE24E394F12C08E010E048E050E08AE197
:1018100096E00E949E06609156037091570377FFF1
:1018200002C0695F7F4F93E0759567959A95E1F7E0
:101830009B012A5F3F4FEE24E394F12C09E010E076
:1018400049E050E08AE196E00E949E0683E08093A2
:1018500058034091560350915703445A5C4F5A83A2
:10186000498357E0752E8091560390915703815B11
:101870009F4F29813A812C553340821793070CF4EE
:1018800054C09091000180915803973008F044C0F3
:101890008F5F80935803A981BA81E0915803F0E0EB
:1018A000CD0101969A83898311968C911197672DAA
:1018B0000E9483138601081B11099F012F5F3F4F70
:1018C0008C910E948313A601481B5109EE24E394D6
:1018D000F12CBF018AE196E00E949E06E091580338
:1018E000F0E0A981BA818C91672D0E948313850154
:1018F000081B11099F012E5F3F4F11978C910E9489
:101900008313A501481B5109BF016F5F7F4F8AE117
:1019100096E00E949E06A7CF973011F48E5FB9CF54
:10192000983009F0B8CF8D5FB4CFEFE2F0E0FA83E2
:10193000E98321E030E049815A8170E060E08AE18A
:1019400096E00E94D10321E030E049815A8161E0B4
:1019500070E08AE196E00E94D10321E030E0498105
:101960005A8162E070E08AE196E00E94D103298109
:101970003A81275031093A83298325303105C9F648
:101980004FE250E05A83498321E030E049815A8197
:1019900065E170E08AE196E00E94D10321E030E049
:1019A00049815A816AE270E08AE196E00E94D1039F
:1019B00021E030E049815A816FE370E08AE196E0EE
:1019C0000E94D10389819A8103979A83898305971D
:1019D000D9F6A3E0B0E0BA83A98321E030E041E288
:1019E00050E069817A818AE196E00E94D10321E08A
:1019F00030E043E150E069817A818AE196E00E941B
:101A0000D103E981FA813396FA83E983E435F1055C
:101A100021F780915503811154C01092270610922E
:101A20002606109229061092280610922B06109274
:101A30002A0681E090E090932D0680932C068091F9
:101A40000201811104C083E293E00E94A00780910B
:101A50000201882331F060E070E080EA90E40E94A7
:101A6000A20781E090E090932D0680932C0690933E
:101A70002B0680932A0687E293E00E94A0076091DC
:101A8000000170E090E080E04AE00E945C0789E29B
:101A900093E00E94A0078DE00E949D02019731F41F
:101AA0008091020191E08927809302018BE00E94DE
:101AB0009D02019731F48091020191E08927809382
:101AC000020180915503813009F061C01092270610
:101AD00010922606109229061092280681E090E0C6
:101AE00090932D0680932C0690932B0680932A06C4
:101AF00080910201811104C083E293E00E94A0075B
:101B000080910201882331F060E070E080EA90E487
:101B10000E94A20710922B0610922A0621E030E0C4
:101B200030932D0620932C0687E293E00E94A007B5
:101B30006091000170E090E080E04AE00E945C0764
:101B400041E050E050932D0640932C0650932B0615
:101B500040932A0689E293E00E94A0078DE00E944C
:101B60009D02019739F480910001815008F442C12F
:101B7000809300018BE00E949D02019741F48091C7
:101B800000018F5F893009F438C180930001809192
:101B90005503823009F064C0109227061092260681
:101BA000109229061092280681E090E090932D066D
:101BB00080932C0690932B0680932A068091020135
:101BC000811104C083E293E00E94A007809102018A
:101BD000882331F060E070E080EA90E40E94A20780
:101BE00087E293E00E94A0076091000170E090E01E
:101BF00080E04AE00E945C0710922B0610922A06B1
:101C000081E090E090932D0680932C0689E293E08A
:101C10000E94A00781E0809319068DE00E949D023A
:101C2000019759F480915603909157030A9797FDB5
:101C3000E6C090935703809356038BE00E949D0269
:101C4000019771F480915603909157030A968D364F
:101C500052E095070CF0D8C0909357038093560339
:101C600080915503833009F07CC010925703109285
:101C7000560310921906109227061092260610920B
:101C800029061092280681E090E090932D0680931B
:101C90002C0690932B0680932A06809102018111D5
:101CA00004C083E293E00E94A00780910201882390
:101CB00031F060E070E080EA90E40E94A20787E2E1
:101CC00093E00E94A0076091000170E090E080E046
:101CD0004AE00E945C0781E090E090932D0680939B
:101CE0002C0690932B0680932A0689E293E00E94AB
:101CF000A0078DE00E949D02019741F480910101AF
:101D00008451843108F483C0809301018BE00E94E8
:101D10009D02019741F4809101018C5E873E08F09D
:101D200078C0809301018091010167E00E948313D4
:101D300041E050E065E070E0D601A81BB109CD019B
:101D40000E94A0058091010167E00E94831350E08A
:101D500040E062E070E0F601E81BF109CF010E946B
:101D6000A0058CE00E949D02019741F480915503EB
:101D70008F5F843009F44FC08093550380914C03EA
:101D80008823A9F02FB7F8948091480390914903D4
:101D9000A0914A03B0914B0310924C032FBF809344
:101DA000510390935203A0935303B0935403E090D4
:101DB000010100910001F12C412C512C320110E065
:101DC00080E090E021E030E03A832983D1012D9139
:101DD0001D01911125C02E1508F021C2E21608F050
:101DE00069C01981FF24F39491E0882309F48CC021
:101DF000F82E1FC010920001BDCE88E0C6CE109212
:101E000057031092560319CF8CE692E025CF84E158
:101E10007BCF86EE86CF1092550310921906AECF77
:101E20002E1518F0882309F46FC081E0E21608F03F
:101E30006BC0063008F441C069817A81611B710969
:101E400061507109072E000C880B990B0E945C12DF
:101E50002EEA37E441E550E40E9411139B01AC01E6
:101E600060E074E284E799E40E94B2110E942412B7
:101E70002B013C01033009F091C169817A81611B1A
:101E80007109072E000C880B990B0E945C122EEA38
:101E900037E441E550E40E9411139B01AC0160E07E
:101EA00074E284E799E40E94B21120E030E040E05F
:101EB0005EE322C0FF24F394B5CF053009F04EC194
:101EC00069817A81611B7109072E000C880B990BBF
:101ED0000E945C122EEA37E441E550E40E9411139F
:101EE0009B01AC0160E074E284E799E40E94B211C6
:101EF00020E030E040E05FE30E9411130E942412D2
:101F00002B013C0180E090E029813A812F5F3F4F17
:101F10003A8329832F3F310509F058CF81E090E0C3
:101F200090932D0680932C0690932B0680932A067F
:101F300080910201882309F442C060915903709195
:101F40005A03072E000C880B990B0E945C1220E0AC
:101F500030E040EA50E40E94111320E030E04FE707
:101F600053E40E94B21169837A838B839C8320E0BF
:101F700030E040E250E40E940C131816A4F4609183
:101F800051037091520380915303909154030E9426
:101F90005A120E94241260934D0370934E03809353
:101FA0004F039093500320E030E040E250E4698119
:101FB0007A818B819C810E94AD1187FF0EC0C30185
:101FC000B2010E945C120E94241260934D03709330
:101FD0004E0380934F039093500380914D03909153
:101FE0004E03A0914F03B0915003883E9340A1054A
:101FF000B10524F587E293E00E94A00740904D03CD
:1020000050904E0360904F03709050034AE0C3011C
:10201000B20177FE0DC06DE28AE196E00E94FA03FC
:1020200066277727CB0164197509860997094AE065
:102030000E945C078DE293E00E94A00760914D032F
:1020400070914E0380914F0390915003693E43E09D
:1020500074078105910574F00E945C1220E030E065
:102060004AE754E40E94B2110E94A2078CE293E076
:102070000E94A00780910201882361F11092270637
:102080001092260688E290E0909329068093280615
:1020900081E090E090932D0680932C0690932B0680
:1020A00080932A066091590370915A03072E000C01
:1020B000880B990B0E945C1220E030E040EA50E46B
:1020C0000E94111320E030E04FE753E40E94B21168
:1020D0000E94A2078091020181112CC01092270654
:1020E0001092260688E290E09093290680932806B5
:1020F00081E090E090932D0680932C0690932B0620
:1021000080932A066091590370915A03072E000CA0
:10211000880B990B0E945C122DEC3CEC4CE85FE3C1
:102120000E94111320E030E04FE753E40E94B21107
:102130000E94A20780E393E00E94A00768EC70E091
:1021400080E090E00E949F030E940F0380E090E0F7
:10215000892B09F4F6C90E940000F3C9043009F084
:1021600089CE69817A81611B7109072E000C880B69
:10217000990B0E945C122EEA37E441E550E40E947C
:1021800011139B01AC0160E074E284E799E40E94C2
:10219000B21120E030E040E85EE3AECE0230F1F074
:1021A0000130E1F00111AECE89819A81811B910944
:1021B000E4EFF1E08E9F90018F9F300D9E9F300DD8
:1021C0001124032E000C440B550B60E472E48FE0E5
:1021D00090E00E94B11329013A0194CE69817A817D
:1021E000611B7109072E000C880B990B0E945C1271
:1021F0002EEA37E441E550E40E9411139B01AC0143
:1022000060E074E284E799E40E94B21120E030E0DB
:1022100040E05DE371CE911115CA492F19CAF11042
:10222000DDCD9F2DFFCDEAE1F6E01382128224E599
:1022300030E03583248380E390E097838683318781
:10224000208793878287158A1586148617861686B7
:1022500081E0848B2FEF3FEF338B228B318B208BF0
:10226000868B8FEF92E09183808386E0878B87E077
:10227000808F84E0818F82E0828F83E0838F089556
:102280005058BB27AA270E9458110C94D2120E94C2
:10229000C41238F00E94CB1220F039F49F3F19F499
:1022A00026F40C94C1120EF4E095E7FB0C94BB12DB
:1022B000E92F0E94E31258F3BA17620773078407E5
:1022C000950720F079F4A6F50C9405130EF4E0952B
:1022D0000B2EBA2FA02D0B01B90190010C01CA01E0
:1022E000A0011124FF27591B99F0593F50F4503E8B
:1022F00068F11A16F040A22F232F342F4427585F7D
:10230000F3CF469537952795A795F0405395C9F794
:102310007EF41F16BA0B620B730B840BBAF091504C
:10232000A1F0FF0FBB1F661F771F881FC2F70EC0EB
:10233000BA0F621F731F841F48F4879577956795BE
:10234000B795F7959E3F08F0B0CF9395880F08F0AA
:102350009927EE0F9795879508950E94971208F494
:1023600081E008950E94C6110C94D2120E94CB12F3
:1023700058F00E94C41240F029F45F3F29F00C94F9
:10238000BB1251110C9406130C94C1120E94E3125B
:1023900068F39923B1F3552391F3951B550BBB2794
:1023A000AA2762177307840738F09F5F5F4F220FD9
:1023B000331F441FAA1FA9F335D00E2E3AF0E0E8D0
:1023C00032D091505040E695001CCAF72BD0FE2F1A
:1023D00029D0660F771F881FBB1F261737074807AE
:1023E000AB07B0E809F0BB0B802DBF01FF27935866
:1023F0005F4F3AF09E3F510578F00C94BB120C945D
:1024000006135F3FE4F3983ED4F38695779567957E
:10241000B795F7959F5FC9F7880F911D969587959A
:1024200097F90895E1E0660F771F881FBB1F6217B9
:1024300073078407BA0720F0621B730B840BBA0B77
:10244000EE1F88F7E09508950E942B126894B11151
:102450000C94061308950E94EB1288F09F5798F091
:10246000B92F9927B751B0F0E1F0660F771F881F99
:10247000991F1AF0BA95C9F714C0B13091F00E94B3
:102480000513B1E008950C940513672F782F882762
:10249000B85F39F0B93FCCF3869577956795B395DA
:1024A000D9F73EF490958095709561957F4F8F4F49
:1024B0009F4F0895E89409C097FB3EF4909580954E
:1024C000709561957F4F8F4F9F4F9923A9F0F92FFA
:1024D00096E9BB279395F695879577956795B79578
:1024E000F111F8CFFAF4BB0F11F460FF1BC06F5F5E
:1024F0007F4F8F4F9F4F16C0882311F096E911C070
:10250000772321F09EE8872F762F05C0662371F090
:1025100096E8862F70E060E02AF09A95660F771FA4
:10252000881FDAF7880F9695879597F90895990F80
:102530000008550FAA0BE0E8FEEF16161706E8078D
:10254000F907C0F012161306E407F50798F0621BAE
:10255000730B840B950B39F40A2661F0232B242B83
:10256000252B21F408950A2609F4A140A6958FEFA2
:10257000811D811D089597F99F6780E870E060E0F4
:1025800008959FEF80EC089500240A94161617060C
:1025900018060906089500240A9412161306140654
:1025A00005060895092E0394000C11F4882352F0B7
:1025B000BB0F40F4BF2B11F460FF04C06F5F7F4F6F
:1025C0008F4F9F4F089557FD9058440F551F59F056
:1025D0005F3F71F04795880F97FB991F61F09F3F10
:1025E00079F087950895121613061406551FF2CF39
:1025F0004695F1DF08C0161617061806991FF1CF89
:1026000086957105610508940895E894BB276627AF
:102610007727CB0197F908950E94971208F48FEF5E
:1026200008950E9424130C94D2120E94C41238F010
:102630000E94CB1220F0952311F00C94BB120C9445
:10264000C11211240C9406130E94E31270F3959F9B
:10265000C1F3950F50E0551F629FF001729FBB2799
:10266000F00DB11D639FAA27F00DB11DAA1F649F35
:102670006627B00DA11D661F829F2227B00DA11DE8
:10268000621F739FB00DA11D621F839FA00D611D6E
:10269000221F749F3327A00D611D231F849F600D8F
:1026A000211D822F762F6A2F11249F5750409AF0B8
:1026B000F1F088234AF0EE0FFF1FBB1F661F771F44
:1026C000881F91505040A9F79E3F510580F00C940F
:1026D000BB120C9406135F3FE4F3983ED4F3869547
:1026E00077956795B795F795E7959F5FC1F7FE2BAF
:1026F000880F911D9695879597F908950E949712D6
:10270000880B990B0895991B79E004C0991F9617BF
:1027100008F0961B881F7A95C9F780950895A1E265
:102720001A2EAA1BBB1BFD010DC0AA1FBB1FEE1F4B
:10273000FF1FA217B307E407F50720F0A21BB30B96
:10274000E40BF50B661F771F881F991F1A9469F712
:1027500060957095809590959B01AC01BD01CF016E
:102760000895052E97FB1EF400940E94C81357FD90
:1027700007D00E948F1307FC03D04EF40C94C813AB
:1027800050954095309521953F4F4F4F5F4F08959D
:1027900090958095709561957F4F8F4F9F4F0895CD
:1027A000EE0FFF1F0590F491E02D099481E090E079
:0A27B000F8940C94DB13F894FFCFAB
:1027BA00061E0100000000000000000000000000EA
:1027CA0000000000000000000000000000000000FF
:1027DA00000000000000000000C0E0F0F8FCFCFE71
:1027EA00FFFCE00000000000000000000000000004
:1027FA0000000000000000000000000000000000CF
:10280A0000000000000000000000000000000000BE
:10281A000000000000000000F8F8F8F8F8F8F8F8EE
:10282A00F8F8F8F8F0F0E0E0C080C0FCFFFFFFFF26
:10283A007F3F7FFFFFFFFFFF000000000000000056
:10284A00000000000000000000000000000000007E
:10285A00000000000000000000000000000000006E
:10286A00000000000000000000000000000F1F3FF1
:10287A007FFFFFFFFFFFFFFFFFE7C7C7878F9F9F0E
:10288A00FFFFFFC1C0E0FCFFFFFFFFFFFCFCFCFCF9
:10289A00FEFEFEFCFCF8F8F0E0C0C00000000000FC
:1028AA00000000000000000000000000000000001E
:1028BA00000000000000000000000000000000000E
:1028CA000000000080C0E0F1FBFFFFFFFFFF7F1F59
:1028DA000F0F87E7FFFFFF1F1F3FF9F8F8F8F8F817
:1028EA00F8FDFFFFFFFFFFFFFFFFFF7F3F0F07011D
:1028FA0000000000000000000000000000000000CE
:10290A0000000000000000000000000000000000BD
:10291A00000000000000F0FEFFFFFFFFFFFFFFFFC7
:10292A00FFFFFE7E3F3F0F1FFFFFFFFCF0E0F1FFBE
:10293A00FFFFFFFFFCF0010101010101010100009D
:10294A00000000000000000000000000000000007D
:10295A00000000000000000000000000000000006D
:10296A00000000000000000000000303030303034B
:10297A0003030101010100000000000000030F1F12
:10298A003F7F7FFFFFFFFF7F7F1F030000000000E4
:10299A00000000000000000000000000000000002D
:1029AA00000000000000000000000000000000FA23
:1029BA000347024C074B07D1039E06890573054F4F
:1029CA00063E052105F9036E616E00696E66006FA9
:1029DA00766600312E310020002050004B487A00E4
:0229EA00560095
:00000001FF
