:100000000C94F2010C941A020C941A020C941A0229
:100010000C941A020C941A020C941A020C94EF0B12
:100020000C941A020C941A020C941A020C941A02E0
:100030000C941A020C94C20B0C941A020C941A021F
:100040000C94780B0C941A020C94460B0C94200B15
:100050000C941A020C941A020C941A020C941A02B0
:100060000C941A020C941A02000000000000005FB9
:1000700000000007000700147F147F14242A7F2A41
:10008000122313086462364955225000050300000C
:10009000001C2241000041221C00082A1C2A0808DA
:1000A000083E0808005030000008080808080060F2
:1000B00060000020100804023E5149453E00427F86
:1000C000400042615149462141454B311814127F8D
:1000D0001027454545393C4A494930017109050316
:1000E0003649494936064949291E0036360000007E
:1000F000563600000008142241141414141441222E
:100100001408000201510906324979413E7E11115D
:10011000117E7F494949363E414141227F4141227A
:100120001C7F494949417F090901013E4141513242
:100130007F0808087F00417F41002040413F017F48
:10014000081422417F404040407F0204027F7F0428
:1001500008107F3E4141413E7F090909063E415159
:10016000215E7F09192946464949493101017F012C
:10017000013F4040403F1F2040201F7F2018207F2C
:100180006314081463030478040361514945430070
:10019000007F4141020408102041417F0000040219
:1001A0000102044040404040000102040020545439
:1001B00054787F48444438384444442038444448C0
:1001C0007F3854545418087E090102081454543CD2
:1001D0007F0804047800447D40002040443D000036
:1001E0007F10284400417F40007C041804787C087C
:1001F00004047838444444387C1414140808141453
:10020000187C7C080404084854545420043F44409B
:10021000203C4040207C1C2040201C3C4030403C86
:1002200044281028440C5050503C4464544C440022
:100230000836410000007F00000041360800080831
:100240002A1C08081C2A08087C1414140838444482
:10025000442004047C04040C5050503C3048FC48BA
:100260003044281028447C404040FC0C1010107C86
:100270007C407C407C7C407C40FC047C5050207C5A
:100280005050207C7C5050200028445454387C101E
:10029000384438085434147C7E1111117E7F49494A
:1002A00049337F494949367F01010103E0514F41FC
:1002B000FF7F4949494177087F08774149494936D5
:1002C0007F1008047F7C2112097C7F0814224120C2
:1002D000413F017F7F020C027F7F0808087F3E417B
:1002E00041413E7F0101017F7F090909063E4141ED
:1002F000412201017F010147281008071C227F22AB
:100300001C63140814637F404040FF070808087FFF
:100310007F407F407F7F407F40FF017F4848307FA4
:100320004830007F007F484830224149493E7F08DD
:100330003E413E462919097F20545454783C4A4A8C
:1003400049317C545428007C0404040CE0544C448F
:10035000FC38545454186C107C106C444454542889
:100360007C2010087C7C4122117C7C1028440020D9
:10037000443C047C7C0810087C7C1010107C3844C1
:100380004444387C0404047C00000000240027005E
:100390002A000000000023002600290001020408B2
:1003A00010204080010204081020010204081020DF
:1003B00000000000250028002B00040404040404AD
:1003C0000404020202020202030303030303000007
:1003D0000008000201000003040700000000000004
:1003E0000000680C11241FBECFEFD8E0DEBFCDBFE8
:1003F00014E0A0E0B1E0EEE1F1E402C005900D925E
:10040000AE3CB107D9F728E0AEECB4E001C01D92D4
:10041000A538B207E1F711E0C2EFD1E004C021979F
:10042000FE010E948220C13FD107C9F70E94C10C82
:100430000C948D200C94000028E030E040E8E0911E
:100440007B08F0917C0850819091820890959523CB
:100450009083E0917908F0917A0890918108582F63
:10046000542389F05081952B9083E0917B08F09183
:100470007C08908150918208952B9083469521505D
:100480003109E9F60895508190959523EDCF85E4E3
:1004900080937C0080917A00806480937A008091C0
:1004A0007A0086FDFCCF80917800909179000895C4
:1004B000AF92BF92CF92DF92EF92FF920F931F9372
:1004C000CF93DF936C017B018B01040F151FEB01B0
:1004D0005E01AE18BF08C017D10759F06991D60167
:1004E000ED91FC910190F081E02DC6010995892BD9
:1004F00079F7C501DF91CF911F910F91FF90EF9098
:10050000DF90CF90BF90AF900895FC01538D448D44
:10051000252F30E0842F90E0821B930B541710F0AE
:10052000CF96089501970895FC01918D828D9817BB
:1005300061F0A28DAE0FBF2FB11D5D968C91928D93
:100540009F5F9F73928F90E008958FEF9FEF0895C4
:10055000FC01918D828D981731F0828DE80FF11D8D
:10056000858D90E008958FEF9FEF0895FC01918DA8
:10057000228D892F90E0805C9F4F821B91098F73A1
:100580009927089580EC97E00E94B60221E0892B1C
:1005900009F420E0822F089580E090E0892B29F073
:1005A0000E94C20281110C9400000895FC01A48DE8
:1005B000A80FB92FB11DA35ABF4F2C91848D90E085
:1005C00001968F739927848FA689B7892C93A08968
:1005D000B1898C91837080648C93938D848D9813F2
:1005E00006C00288F389E02D80818F7D8083089585
:1005F000EF92FF920F931F93CF93DF93EC0181E073
:10060000888F9B8D8C8D98131AC0E889F989808119
:1006100085FF15C09FB7F894EE89FF896083E8894C
:10062000F98980818370806480839FBF81E090E03E
:10063000DF91CF911F910F91FF90EF900895F62ECB
:100640000B8D10E00F5F1F4F0F731127E02E8C8D65
:100650008E110CC00FB607FCFACFE889F9898081AA
:1006600085FFF5CFCE010E94D602F1CFEB8DEC0FC6
:10067000FD2FF11DE35AFF4FF0829FB7F8940B8FC7
:10068000EA89FB8980818062CFCFCF93DF93EC0131
:10069000888D8823B9F0AA89BB89E889F9898C916A
:1006A00085FD03C0808186FD0DC00FB607FCF7CF26
:1006B0008C9185FFF2CF808185FFEDCFCE010E9426
:1006C000D602E9CFDF91CF910895833081F028F4ED
:1006D000813099F08230A9F008958730A9F08830F0
:1006E000C9F08430B1F4809180008F7D03C0809187
:1006F00080008F7780938000089584B58F7784BDC4
:10070000089584B58F7DFBCF8091B0008F77809363
:10071000B00008958091B0008F7DF9CFCF93DF9323
:10072000282F30E0F901E253FC4F8491F901E4569F
:10073000FC4FD491F901E654FC4FC491CC23A1F0B5
:1007400081110E946503EC2FF0E0EE0FFF1FEE56C3
:10075000FC4FA591B491EC91ED2381E090E009F478
:1007600080E0DF91CF91089580E090E0FACF1F9371
:10077000CF93DF93282F30E0F901E253FC4F8491AF
:10078000F901E456FC4FD491F901E654FC4FC491B1
:10079000CC23A9F0162F81110E946503EC2FF0E005
:1007A000EE0FFF1FE055FC4FA591B4918FB7F89461
:1007B000EC91111108C0D095DE23DC938FBFDF913F
:1007C000CF911F910895DE2BF8CFCF93C82F60E013
:1007D000809176080E94B7038091780818161CF45F
:1007E00060E00E94B7038C2F0E941C028091780861
:1007F000181624F461E0CF910C94B703CF910895BB
:10080000EF92FF920F931F93CF93DF930DE011E0D0
:10081000C0E08C2F80640E94E50380E80E94E5031D
:1008200061E0809176080E94B703809178081816DD
:100830001CF460E00E94B7037801D4E5F7018191D0
:100840007F010E941C02D150C9F7809178081816C8
:100850001CF461E00E94B703CF5F0C5A1F4FC630F3
:10086000C1F680E4DF91CF911F910F91FF90EF903F
:100870000C94E503CF93DF9390E0FC01E456FC4F2A
:10088000249186549C4FFC0184918823D1F090E000
:10089000880F991FFC01E857FC4FA591B491FC010A
:1008A000E055FC4FC591D49161110EC09FB7F894EB
:1008B0008C91E22FE0958E238C932881E223E883AC
:1008C0009FBFDF91CF9108958FB7F894EC91E22B01
:1008D000EC938FBFF6CF3FB7F8948091D5049091F9
:1008E000D604A091D704B091D80426B5A89B05C022
:1008F0002F3F19F00196A11DB11D3FBFBA2FA92F9F
:10090000982F8827BC01CD01620F711D811D911D9B
:1009100042E0660F771F881F991F4A95D1F7089507
:100920008F929F92AF92BF92CF92DF92EF92FF92FF
:100930004B015C010E946B046B017C010E946B0403
:100940006C197D098E099F09683E734081059105E8
:10095000A8F321E0821A9108A108B10888EEC80E18
:1009600083E0D81EE11CF11C81149104A104B104A0
:1009700029F7FF90EF90DF90CF90BF90AF909F90BE
:100980008F900895CF92DF92EF92FF92CF936B01F9
:100990007C01AC019B016EEF7FEF81E090E00E9453
:1009A0000B209B01AC0160E074E284EF90E00E94B8
:1009B0002720C0E0EC2FF0E0EE0FFF1FEB56FC4FBE
:1009C00080819181CF5F82179307A0F3A7019601E1
:1009D000220F331F441F551FEC2FF0E0EE0FFF1FB7
:1009E000EB56FC4FA081B1810E9477209B01AC01A6
:1009F00060E074E284EF90E00E942720309387004B
:100A00002093860080918100887FC770C82BC09397
:100A1000810081E0CF91FF90EF90DF90CF9008951B
:100A20000F931F93CF93DF93D82FC62F61E00E94BF
:100A30003A04C11108C060E08D2FDF91CF911F9162
:100A40000F910C94B703CF3F11F461E0F5CFED2F78
:100A5000F0E0E253FC4FE491E33049F128F4E23056
:100A600091F0C7FFE8CFF1CFE430F1F1E830C9F7FA
:100A70008091B00080628093B000A091B300B0E09C
:100A800004EB10E007C084B5806284BDA7B5B0E078
:100A900008E410E02C2F30E00E9468202FEF30E0B7
:100AA00040E050E00E942720F801208318C0809188
:100AB0008000806880938000A0918600B0918700BC
:100AC00008E810E02C2F30E00E9468202FEF30E083
:100AD00040E050E00E942720F80131832083DF911D
:100AE000CF911F910F910895809180008062809333
:100AF0008000A0918600B09187000AE810E0E2CF64
:100B0000D9016435710500F540335105E8F4CA0197
:100B100023E0959587952A95E1F724E5289FF00134
:100B2000299FF00D1124E60FF71FE35FFE4F308180
:100B30004770552781E090E001C0880F4A95EAF799
:100B4000AB2B19F0832B8083089580958323FBCFF3
:100B500008952F923F924F925F926F927F928F9261
:100B60009F92AF92BF92CF92DF92EF92FF920F933C
:100B70001F93CF93DF93CDB7DEB72C970FB6F894C2
:100B8000DEBF0FBECDBF20EE260F203A08F007C112
:100B90009C878B87DC011C96CD90DC901D97189666
:100BA0008D919C911997C816D9060CF085C01E9698
:100BB0008D909C901F971A968D919C911B978816EB
:100BC00099060CF079C05496BC91B983AB2EB12C28
:100BD000C601E6E0BE9F800D911D1124181619066E
:100BE0000CF06AC0C50123E0880F991F2A95E1F730
:100BF000880D991D181619060CF05EC0AB85BC85D2
:100C000052960D90BC91A02DBC83AB83EB85FC85E7
:100C10000088F189E02DFE83ED836052770B25E09B
:100C2000269FC001279F900D112426011A828C193E
:100C30009D099C0128593F4F3A8729873A81E0E076
:100C4000353029F0E985FA85E40DF51DE4911401AC
:100C5000712C612C8E2F90E098878F83E0FF84C0E9
:100C6000AB85BC85ED91FC91B981B13009F06FC0C5
:100C70000084F185E02D2D813E81A301480D591D91
:100C8000B2018B859C850995EF81F885F595E795EF
:100C9000FFEF6F1A7F0A2A0C3B1C28E062167104D2
:100CA000C9F63FEF431A530ACA0CDB1C5A815F5F37
:100CB0005A83563009F0C2CFAB85BC8554964C910F
:100CC0005497242F30E01C968D919C91B6E04B9F59
:100CD000800D911D1124EB85FC85958784874689BD
:100CE0004423D1F06AEF6203A001639F500D1124E9
:100CF00060857185460F571F481759076CF483E0CC
:100D0000220F331F8A95E1F786859785280F391FB3
:100D1000378726871586148681E090E02C960FB6DB
:100D2000F894DEBF0FBECDBFDF91CF911F910F9121
:100D3000FF90EF90DF90CF90BF90AF909F908F90FB
:100D40007F906F905F904F903F902F900895028812
:100D5000F389E02DED80FE8085019501A101B601AA
:100D60008B859C85099590CFEB81FC812D813E81FF
:100D7000E217F30709F488CFAB85BC85ED91FC91B0
:100D8000B981B13031F40084F185E02D2B813C81B3
:100D900074CF0288F389E02DEB80FC80DDCFBECFDD
:100DA000EF92FF920F931F93DC011A960D911C9105
:100DB0001B9718962D913C911997ED91FC91028803
:100DC000F389E02D7B0150E040E070E060E00995A0
:100DD0001F910F91FF90EF9008956F927F928F92E5
:100DE0009F92AF92BF92CF92DF92EF92FF920F93BA
:100DF0001F93CF93DF936C015A014801EB013B0134
:100E0000620E731EC615D70574F4D601ED91FC91E0
:100E10000484F585E02D87019401A501BE01C6017A
:100E200009952196EFCFDF91CF911F910F91FF9000
:100E3000EF90DF90CF90BF90AF909F908F907F907A
:100E40006F900895EF92FF920F931F93260F371F15
:100E500021503109DC01ED91FC910284F385E02DF4
:100E600078018A0109951F910F91FF90EF900895E5
:100E7000EF92FF920F931F93240F351F21503109DA
:100E8000DC01ED91FC910284F385E02D780189016C
:100E90009B0109951F910F91FF90EF9008952F925C
:100EA0003F924F925F926F927F928F929F92AF92FA
:100EB000BF92CF92DF92EF92FF920F931F93CF9347
:100EC000DF9300D000D000D0CDB7DEB73C017E83E9
:100ED0006D834A019B01220F331F2F5F3F4FA301F8
:100EE000461B570B840160E570E08DE598E00E9499
:100EF000380781E090E07C012D813E81E21AF30AFF
:100F00001901319421943108220C331CAA24A39492
:100F1000B12CD12CC12CF7FC0BC04D815E8141500E
:100F200051095E834D8352E0250E311CE20CF31C07
:100F30008FEFC81AD80A92E0A90EB11CEA0CFB1C6C
:100F40004D805E80440C551C2FEF421A520AB601A8
:100F5000605B7F4F84019201A3018D819E81481BBC
:100F6000590B5A8349838DE598E00E943807930115
:100F70002C193D093C832B8395014B815C816D814C
:100F80007E81605B7F4F8DE598E00E94380760E5C9
:100F900070E06C197D09920149815A818DE598E0D4
:100FA0000E94380795014B815C8160E570E08D817E
:100FB0009E81681B790B8DE598E00E9438072D8192
:100FC0003E81C216D3060CF4A6CF26960FB6F8942F
:100FD000DEBF0FBECDBFDF91CF911F910F91FF906C
:100FE000EF90DF90CF90BF90AF909F908F907F90C9
:100FF0006F905F904F903F902F9008956F927F92E7
:101000008F929F92AF92BF92CF92DF92EF92FF9218
:101010000F931F93CF93DF93EC016B015A013901BA
:101020004801E881F9810684F785E02D870109955B
:10103000A501480D591D41505109E881F9810684E7
:10104000F785E02D9301B601CE010995E881F9817C
:101050000484F585E02D9401A501B601CE01099522
:10106000C60CD71CB60161507109E881F98104846E
:10107000F585E02D9401A501CE010995DF91CF9171
:101080001F910F91FF90EF90DF90CF90BF90AF90A6
:101090009F908F907F906F9008952F923F924F92E4
:1010A0005F926F927F928F929F92AF92BF92CF92F8
:1010B000DF92EF92FF920F931F93CF93DF9300D0B5
:1010C00000D000D0CDB7DEB73C016A013E832D834E
:1010D000FC82EB825801A41AB50AB7FE03C0B19492
:1010E000A194B1088D809E80861A970A97FE03C04E
:1010F0009194819491088A149B045CF0902F812F25
:101100000D811E819D838E839C2D8D2D6B01692FFA
:10111000782F0C151D055CF09D818E817E836D837B
:10112000692F782F902F812F8601C92ED82E160176
:10113000201A310A2B012D813E81421A530A57FE93
:1011400003C0519441945108710137FE03C03FEF31
:10115000E31AF30AF594E7948D819E818617970729
:101160005CF5A1E0B0E0BA83A983C016D1064CF1CA
:10117000D301ED91FC910084F185E02D2B813C8120
:10118000A8016D817E818A149B041CF04D815E81D3
:10119000B801C3010995E418F508F7FE0AC02D81CE
:1011A0003E8189819A81280F391F3E832D83E20C6D
:1011B000F31C0F5F1F4FD9CF2FEF3FEF3A832983E7
:1011C000D4CF26960FB6F894DEBF0FBECDBFDF9109
:1011D000CF911F910F91FF90EF90DF90CF90BF9034
:1011E000AF909F908F907F906F905F904F903F90C7
:1011F0002F900895089590E080E008958F929F9237
:10120000AF92BF92CF92DF92EF92FF920F931F9314
:10121000CF936B017C01AEEFB1E0AC019B010E946A
:1012200077209B01AC0160E074E284EF90E00E94C3
:101230002720C901C0E0CC0CDD1CEE1CFF1C812C5A
:1012400044E2942E44EFA42EB12CCF5FEC2FF0E0BB
:10125000EE0FFF1FEB57FC4F008111810817190794
:10126000A0F3D801A70196010E9477209B01AC0151
:10127000C501B4010E942720C8012F3F310509F0A4
:1012800020F72093B3008091B100887FC770C82BEE
:10129000C093B10081E0CF911F910F91FF90EF902B
:1012A000DF90CF90BF90AF909F908F9008950F9355
:1012B0001F93E7EDF3E0E4912DEF2E0F223078F449
:1012C0008B019C0101501109210931090038144892
:1012D0002E413105A8F41F910F910C94C204E830FF
:1012E00079F48B019C010F51110921093109023652
:1012F00014482E41310520F41F910F910C94FE08E3
:1013000080E01F910F910895E0E8F0E080818C7FEC
:101310008083E1E8F0E08081877E8061808364EFF4
:1013200071E080E090E00E94C204E0EBF0E0808198
:101330008C7F81608083E1EBF0E080818860808336
:1013400064EF71E080E090E00C94FE08FC010190F5
:101350000020E9F73197AF01481B590BBC018DE51F
:1013600098E00C9458028F929F92AF92BF920F9385
:101370001F93CF93DF93CDB7DEB7A1970FB6F89445
:10138000DEBF0FBECDBF19A2423008F44AE08E0185
:101390000F5D1F4F842E912CB12CA12CA50194011F
:1013A0000E942720E62FB901CA01EA30F4F4E05D7B
:1013B000D801EE938D01232B242B252B79F790E078
:1013C00080E0109719F0CD010E94A609A1960FB6F2
:1013D000F894DEBF0FBECDBFDF91CF911F910F916B
:1013E000BF90AF909F908F900895E95CE1CFCF922E
:1013F000DF92EF92FF92CF93DF9397FF1BC06B01B9
:101400007C016DE28DE598E00E94A905EC0166275C
:101410007727CB016C197D098E099F094AE00E944C
:10142000B3098C0F9D1FDF91CF91FF90EF90DF905C
:10143000CF9008954AE0DF91CF91FF90EF90DF9039
:10144000CF900C94B3090C94A6094F925F926F92BF
:101450007F928F929F92AF92BF92CF92DF92EF9244
:10146000FF92CF93DF936B017C01D42FAC019B01E2
:101470000E940620882391F08FEC93E0DF91CF91BA
:10148000FF90EF90DF90CF90BF90AF909F908F90A4
:101490007F906F905F904F900C94A60926013701C2
:1014A000E89477F82FEF3FEF4FE75FE7C301B20112
:1014B0000E94062081110DC02FEF3FEF4FE75FE73D
:1014C000C301B2010E94351E18161CF483ED93E08F
:1014D000D5CF2FEF3FEF4FE75FE4C701B6010E9482
:1014E000941F18161CF487ED93E0C8CF2FEF3FEF41
:1014F0004FE75FECC701B6010E94351E87FDF3CFB1
:1015000020E030E0A901C701B6010E94351E912CF0
:10151000812C87FF0AC06DE28DE598E00E94A90545
:101520004C01F7FAF094F7F8F094CD2FA12C60E07D
:1015300070E080E09FE3AD1640F420E030E040E250
:1015400051E40E943A1EA394F6CFA70196010E948F
:10155000C91D2B013C010E94B31E5B016C014AE0D6
:101560000E94B3097C01E80CF91CDD23C1F1C6011E
:10157000B5010E94E21E9B01AC01C301B2010E94B1
:10158000C81D4B015C016EE28DE598E00E94A90543
:10159000E80EF91EC15018F120E030E040E251E4BD
:1015A000C501B4010E94991F2B013C010E94B31E8A
:1015B0004B01B12CA12C4AE0C501B4010E94B30932
:1015C000E80EF91EC501B4010E94E21E9B01AC01A8
:1015D000C301B2010E94C81D4B015C01DBCFC701F2
:1015E000DF91CF91FF90EF90DF90CF90BF90AF90C1
:1015F0009F908F907F906F905F904F900895CF93C2
:10160000DF930E94A609EC018BED93E00E94A609EE
:101610008C0F9D1FDF91CF910895EDE0F1E088EFF1
:1016200091E0DF019C011D9221503040E1F7EDE592
:10163000F8E0158614861786168608950E9488207D
:101640001F920F920FB60F9211242F933F934F9337
:101650005F936F937F938F939F93AF93BF93EF931A
:10166000FF9380EC97E00E94D602FF91EF91BF912B
:10167000AF919F918F917F916F915F914F913F912A
:101680002F910F900FBE0F901F9018951F920F92E1
:101690000FB60F9211242F938F939F93EF93FF9385
:1016A000E091D007F091D1078081E091D607F091C9
:1016B000D70782FD1BC090818091D9078F5F8F7300
:1016C0002091DA07821741F0E091D907F0E0E05469
:1016D000F84F958F8093D907FF91EF919F918F914C
:1016E0002F910F900FBE0F901F9018958081F4CF0F
:1016F0001F920F920FB60F9211242F933F938F9347
:101700009F93AF93BF938091D1049091D204A09105
:10171000D304B091D4043091D00423E0230F2D37AB
:1017200058F50196A11DB11D2093D0048093D104DA
:101730009093D204A093D304B093D4048091D504A1
:101740009091D604A091D704B091D8040196A11D20
:10175000B11D8093D5049093D604A093D704B09381
:10176000D804BF91AF919F918F913F912F910F908E
:101770000FBE0F901F90189526E8230F0296A11D0B
:10178000B11DD2CF1F920F920FB60F9211242F933B
:101790003F934F935F936F937F938F939F93AF93F9
:1017A000BF93EF93FF938091CE049091CF049093D9
:1017B000850080938400F0E0E0E00995FF91EF91CF
:1017C000BF91AF919F918F917F916F915F914F9159
:1017D0003F912F910F900FBE0F901F9018951F9261
:1017E0000F920FB60F9211240F931F932F933F93D5
:1017F0004F935F936F937F938F939F93AF93BF9319
:101800002091840030918500B09B0BC081E086BBA5
:101810008091E0049091E10401969093E10480931B
:10182000E0048091E2049091E30401964091DA048F
:101830005091DB048417950708F445C01092E30427
:101840001092E2048091E0049091E104B0E0A0E005
:10185000DC0199278827820F931FA11DB11D40919C
:10186000DC045091DD046091DE047091DF048C0192
:101870009D01041B150B260B370BB901A8014093E2
:10188000E5045093E6046093E7047093E8048093C2
:10189000DC049093DD04A093DE04B093DF0481E0C8
:1018A0008093E404BF91AF919F918F917F916F914D
:1018B0005F914F913F912F911F910F910F900FBE0C
:1018C0000F901F9018959093E3048093E204EACF61
:1018D000E0ECF7E01382128288EE93E0A0E0B0E043
:1018E00084839583A683B78385EA93E0918380837D
:1018F00085EC90E09587848784EC90E097878687D5
:1019000080EC90E0918B808B81EC90E0938B828BCC
:1019100082EC90E0958B848B86EC90E0978B868BA5
:10192000118E128E138E148EEDE5F8E01382128262
:1019300024E530E03583248380E390E09783868339
:101940003187208793878287158A158614861786A4
:10195000168681E0848B2FEF3FEF338B228B318B08
:10196000208B868B87EB93E09183808386E0878B47
:1019700087E0808F84E0818F82E0828F83E0838F95
:101980000895CF93DF9300D000D01F92CDB7DEB77C
:10199000789484B5826084BD84B5816084BD85B54A
:1019A000826085BD85B5816085BD80916E00816056
:1019B00080936E00109281008091810082608093FC
:1019C00081008091810081608093810080918000FE
:1019D0008160809380008091B10084608093B10029
:1019E0008091B00081608093B00080917A00846023
:1019F00080937A0080917A00826080937A0080914F
:101A00007A00816080937A0080917A008068809368
:101A10007A001092C10060E082E10E943A0461E025
:101A20008EE00E94B70361E0809174080E943A043E
:101A300061E0809175080E943A0461E08091760827
:101A40000E943A048091770818161CF461E00E9405
:101A50003A048091780818161CF461E00E943A0458
:101A60008091770818168CF460E00E94B7032FEF7E
:101A700039E648E1215030404040E1F700C0000025
:101A800061E0809177080E94B70380917508082E65
:101A9000000C990BFC01E654FC4FE491F0E0EE0FD2
:101AA000FF1FE055FC4F2591349130937C08209323
:101AB0007B08FC01E456FC4FE491E093820880919E
:101AC0007408082E000C990BFC01E654FC4FE491BD
:101AD000F0E0EE0FFF1FE055FC4F2591349130935D
:101AE0007A0820937908FC01E456FC4FE491E093D6
:101AF000810880917808082E000C990BFC01E654AF
:101B0000FC4FE491F0E0EE0FFF1FE055FC4F2591F4
:101B1000349130937E0820937D08FC01E456FC4FFD
:101B2000E491E093830880917608082E000C990BCD
:101B3000FC01E654FC4FE491F0E0EE0FFF1FE0558E
:101B4000FC4F259134913093800820937F08FC014D
:101B5000E456FC4FE491E093840881E20E94E5039F
:101B600084E10E94E50388EA0E94E50380E20E9486
:101B7000E5038CE00E94E5030E94000481E20E94DC
:101B8000E50384EB0E94E50380E20E94E5030AE09E
:101B900010E0B4E1EB2EF12C8EE1C82ED12C98E2AE
:101BA000A92EB12C8CE00E948E03892B09F055C21E
:101BB00088E00E948E032091BE073091BF070197F5
:101BC00061F42F5F3F4F3093BF072093BE076AE059
:101BD00070E080E090E00E9490048091BE079091B8
:101BE000BF07C29724F060E08EE00E94B7038091A7
:101BF000BD0781116EC00E940D0B10936A080093FF
:101C0000690810926C0810926B0810926E0810927E
:101C10006D0881E090E09093700880936F088EEDDE
:101C200093E00E94FF0A10936A08009369081093DA
:101C30006C0800936B08A1E0B0E0B0937008A0932B
:101C40006F08B0936E08A0936D0883EF93E00E9435
:101C5000FF0A10936A0800936908F0926C08E092FA
:101C60006B0886E094E00E94FF0A10936A080093D4
:101C70006908D0926C08C0926B088CE194E00E94D5
:101C8000FF0A10926A0810926908B0926C08A0923C
:101C90006B088DE294E00E94230A0E944702BC0177
:101CA000990F880B990B0E94E41E20E030E040EA77
:101CB00050E40E94991F20E030E040E85AE30E947F
:101CC000991F42E050E00E94250A8DE394E00E94B3
:101CD000230A8091BD07813009F082C00E940D0B5C
:101CE00010936A080093690810926C0810926B08B0
:101CF000E1E0F0E0F0937008E0936F08F0936E0875
:101D0000E0936D088EED93E00E94FF0A10936A083D
:101D10000093690810936C0800936B0810926E088A
:101D200010926D0821E030E03093700820936F0826
:101D300083EF93E00E94FF0A41E050E05093700867
:101D400040936F0850936E0840936D0810936A0893
:101D500000936908F0926C08E0926B0886E094E0CA
:101D60000E94FF0A10936A0800936908D0926C08D9
:101D7000C0926B088CE194E00E94FF0A10926A08FE
:101D800010926908B0926C08A0926B0881E090E014
:101D90009093700880936F0890936E0880936D08FD
:101DA0008DE294E00E94230A0E944702BC01990F31
:101DB000880B990B0E94E41E20E030E040EA50E4DA
:101DC0000E94991F20E030E040E85AE30E94991FEA
:101DD00042E050E00E94250A8DE394E00E94230A2D
:101DE0008091BD07823009F082C00E940D0B1093D4
:101DF0006A080093690810926C0810926B08A1E0C1
:101E0000B0E0B0937008A0936F08B0936E08A093F1
:101E10006D088EED93E00E94FF0A10936A0800930C
:101E2000690810936C0800936B0883EF93E00E949D
:101E3000FF0A10926E0810926D08E1E0F0E0F09356
:101E40007008E0936F0810936A0800936908F09295
:101E50006C08E0926B0886E094E00E94FF0A21E0A3
:101E600030E03093700820936F0830936E08209311
:101E70006D0810936A0800936908D0926C08C092AC
:101E80006B088CE194E00E94FF0A10926A0810929D
:101E90006908B0926C08A0926B0841E050E0509342
:101EA000700840936F0850936E0840936D088DE260
:101EB00094E00E94230A0E944702BC01990F880BFC
:101EC000990B0E94E41E20E030E040EA50E40E94BA
:101ED000991F20E030E040E85AE30E94991F42E059
:101EE00050E00E94250A8DE394E00E94230A80912D
:101EF000BD07833009F082C00E940D0B10936A0861
:101F00000093690810926C0810926B0881E090E0D1
:101F10009093700880936F0890936E0880936D087B
:101F20008EED93E00E94FF0A10936A0800936908FF
:101F300010936C0800936B0883EF93E00E94FF0AF4
:101F4000A1E0B0E0B0937008A0936F08B0936E0862
:101F5000A0936D0810936A0800936908F0926C08CA
:101F6000E0926B0886E094E00E94FF0A10926E08EF
:101F700010926D08E1E0F0E0F0937008E0936F08D4
:101F800010936A0800936908D0926C08C0926B089D
:101F90008CE194E00E94FF0A10926A08109269088E
:101FA000B0926C08A0926B0821E030E0309370088A
:101FB00020936F0830936E0820936D088DE294E0B3
:101FC0000E94230A0E944702BC01990F880B990BBB
:101FD0000E94E41E20E030E040EA50E40E94991F95
:101FE00020E030E040E85AE30E94991F42E050E0D0
:101FF0000E94250A8DE394E00E94230A8DE00E944E
:102000008E039090BD07019749F46CE271E080E087
:1020100090E00E94900493949092BD078BE00E9400
:102020008E039090BD07019749F46CE271E080E067
:1020300090E00E94900493949092BD078091BD0718
:10204000843010F01092BD0762E370E080E090E011
:102050000E9490040E940004A5CD8091BD078230AB
:1020600009F03EC10E94840960E47DE083E090E0D5
:102070000E9457098091BD07813061F40E94840954
:102080006091000170910101809102019091030122
:102090000E94570981E090E09093700880936F0848
:1020A00090936E0880936D0864EF71E080E090E09B
:1020B0000E9490044FE2A42EB12C30E3832E912C89
:1020C00028E2622E712C88E00E948E032091BE07C8
:1020D0003091BF07019761F42F5F3F4F3093BF07E7
:1020E0002093BE076AE070E080E090E00E949004D8
:1020F0008091BE079091BF07C29724F060E08EE008
:102100000E94B703D090BD07D11032C680910C0158
:10211000811103C083EE80937C0080910C018823A1
:1021200019F083E680937C0065E070E080E090E049
:102130000E9490048091BC0781115DC080910A01CA
:10214000863018F082EE80937A0080910A01853003
:1021500019F483EE80937A0080910A01843019F497
:1021600084EE80937A0080910A01833019F485EE21
:1021700080937A0080910A01823019F486EE809370
:102180007A0080910A01823018F487EE80937A00F9
:1021900080910A01811118C0EFEFF4E02BEB37E0DA
:1021A0004BEC57E080917A0084FFFCCF80917A005D
:1021B000806180937A00CA010197F1F780917900DC
:1021C00081932E173F0771F780910A01882399F0B8
:1021D000EFEFF4E08BEB97E020917A0024FFFCCF47
:1021E00020917A00206120937A0020917900219338
:1021F0008E179F0789F730910B013B834091FE04B6
:1022000020E030E081E090E0311110C0FC01E150AD
:10221000FB4F50816B81561710F00C94871DAB81DA
:1022200021E0A51718F4482F21E031E001968F3FF7
:10223000910551F74093FE04E0E0F5E0FA83E9836D
:1022400030E020E0819190E0281739070CF49C01E0
:102250004EEF55E04E175F07A9F73093FD0420932A
:10226000FC048091BC078111D2C00E940D0B8B81B0
:1022700067E00E941B2041E050E062E070E0D50181
:10228000A81BB109CD010E944F0783E08093FB0496
:10229000B091FE04EB2FF0E0E150FB4FFD83EC83A7
:1022A00097E0C92E8091FE0490E0815B9F4F2C81C6
:1022B0003D812F5F3440821793070CF4A6C09091A4
:1022C0000A018091FB04973008F056C08F5F80931D
:1022D000FB048091FB04983009F054C08D5F50C01E
:1022E0008111C8CE1092E3041092E2041092E1042E
:1022F0001092E0041092DC041092DD041092DE04CF
:102300001092DF041092E40480918000809181009B
:10231000109281001092800010928500109284002B
:1023200081E086BB10926F008091B0008091B10077
:102330001092B10082E08093B0009CE79093B300CC
:1023400097E09093D90487BB1092B2002DE730E05C
:102350003093DB042093DA042FB7F89483BD3091D7
:10236000D9043093B100809370008BE08150F1F775
:10237000909381002FBF7ECE8E5F973009F0A9CF5A
:102380008093FB04AC81BD81E091FB04F0E09D01F2
:102390002F5F3F4F3D832C8311968C9111976C2DAD
:1023A0000E941B208501081B11099F012F5F3F4FD1
:1023B0008C910E941B20A501481B5109EE24E39437
:1023C000F12CBF018DE598E00E944D086091FB045F
:1023D000E62FF0E0AC81BD818C916C2D0E941B201A
:1023E0008401081B11099F012E5F3F4F11978C91AB
:1023F0000E941B20A401481B5109BF016F5F7F4F42
:102400008DE598E00E944D084DCF1092FE0480911A
:10241000BC07882309F4AAC00E940D0B6091F9043F
:102420007091FA0477FF02C0695F7F4FB3E0759542
:102430006795BA95E1F79B012A5F3F4FEE24E3943D
:10244000F12C08E010E048E050E08DE598E00E94B3
:102450004D086091F9047091FA0477FF02C0695F3A
:102460007F4FE3E075956795EA95E1F79B012A5F59
:102470003F4FEE24E394F12C09E010E049E050E0F6
:102480008DE598E00E944D0883E08093FB04E09185
:10249000F904F091FA04E150FB4FFD83EC83A7E0CF
:1024A000CA2E8091F9049091FA04815B9F4F2C8190
:1024B0003D812F5F3440821793070CF457C09091F1
:1024C0000A018091FB04973048F48F5F8093FB04EE
:1024D0008091FB04983039F48D5F03C08E5F973094
:1024E000B9F78093FB04AC81BD81E091FB04F0E07F
:1024F0009D012F5F3F4F3D832C8311968C91119747
:102500006C2D0E941B208501081B11099F012F5F64
:102510003F4F8C910E941B20A501481B5109EE24BE
:10252000E394F12CBF018DE598E00E944D08609185
:10253000FB04E62FF0E0AC81BD818C916C2D0E94F4
:102540001B208401081B11099F012E5F3F4F11972B
:102550008C910E941B20A401481B5109BF016F5F91
:102560007F4F8DE598E00E944D089BCFEFE2F0E0B1
:10257000FD83EC8321E030E04C815D8170E060E020
:102580008DE598E00E94800521E030E04C815D817E
:1025900061E070E08DE598E00E94800521E030E088
:1025A0004C815D8162E070E08DE598E00E948005DD
:1025B0002C813D81275031093D832C832530310505
:1025C000C9F64FE250E05D834C8321E030E04C815E
:1025D0005D8165E170E08DE598E00E94800521E075
:1025E00030E04C815D816AE270E08DE598E00E9408
:1025F000800521E030E04C815D816FE370E08DE586
:1026000098E00E9480058C819D8103979D838C8337
:102610000597D9F6A3E0B0E0BD83AC8321E030E0BC
:1026200041E250E06C817D818DE598E00E9480055B
:1026300021E030E043E150E06C817D818DE598E060
:102640000E948005EC81FD813396FD83EC83E435A7
:10265000F10521F78091F804811156C010926A08A3
:102660001092690810926C0810926B0810926E0814
:1026700010926D0881E090E09093700880936F084D
:1026800080910C01811104C080E494E00E94230A2F
:1026900080910C01882341F041E050E060E070E05F
:1026A00080EA90E40E94250A81E090E0909370080F
:1026B00080936F0890936E0880936D088DE594E089
:1026C0000E94230A60910A0170E090E080E04AE0F5
:1026D0000E94B30984E494E00E94230A8DE00E94E2
:1026E0008E03019731F480910C0191E0892780934A
:1026F0000C018BE00E948E03019731F480910C0154
:1027000091E0892780930C018091F804813009F0D1
:1027100067C010926A081092690810926C081092B3
:102720006B0881E090E09093700880936F0890931D
:102730006E0880936D0880910C01811104C080E4C3
:1027400094E00E94230A80910C01882341F041E02B
:1027500050E060E070E080EA90E40E94250A109268
:102760006E0810926D0821E030E0309370082093DD
:102770006F088DE594E00E94230A60910A0170E0E1
:1027800090E080E04AE00E94B30941E050E05093BD
:10279000700840936F0850936E0840936D0884E46E
:1027A00094E00E94230A8DE00E948E03019749F471
:1027B00080910A01815080930A018F3F11F4109299
:1027C0000A018BE00E948E03019751F480910A0167
:1027D0008F5F80930A01893019F488E080930A01A1
:1027E0008091F804823009F06EC010926A0810924D
:1027F000690810926C0810926B0881E090E0909349
:10280000700880936F0890936E0880936D08809194
:102810000C01811104C080E494E00E94230A80919D
:102820000C01882341F041E050E060E070E080EA74
:1028300090E40E94250A8DE594E00E94230A6091AD
:102840000A0170E090E080E04AE00E94B309109233
:102850006E0810926D0881E090E09093700880936C
:102860006F0884E494E00E94230A81E08093BC070F
:102870008DE00E948E03019779F48091F904909184
:10288000FA040A979093FA048093F90497FF04C01E
:102890001092FA041092F9048BE00E948E030197C3
:1028A00091F48091F9049091FA040A969093FA04B5
:1028B0008093F9048D36924034F08CE692E0909348
:1028C000FA048093F9048091F804833009F082C0FF
:1028D0001092FA041092F9041092BC0710926A0840
:1028E0001092690810926C0810926B0881E090E0D9
:1028F0009093700880936F0890936E0880936D0892
:1029000080910C01811104C080E494E00E94230AAC
:1029100080910C01882341F041E050E060E070E0DC
:1029200080EA90E40E94250A8DE594E00E94230A43
:1029300060910A0170E090E080E04AE00E94B309F3
:1029400081E090E09093700880936F0890936E08F8
:1029500080936D0884E494E00E94230A8DE00E9435
:102960008E03019751F480910B01845180930B01E8
:10297000843118F484E180930B018BE00E948E0374
:1029800020910B01019741F42C5E20930B01273E0F
:1029900018F086EE80930B0180910B0167E00E9496
:1029A0001B2041E050E065E070E0D501A81BB109B3
:1029B000CD010E944F0780910B0167E00E941B2010
:1029C00050E040E062E070E0F501E81BF109CF0162
:1029D0000E944F078CE00E948E03019759F480916A
:1029E000F8048F5F8093F804843021F41092F80487
:1029F0001092BC078091E4048823A9F02FB7F894C3
:102A00008091E5049091E604A091E704B091E80478
:102A10001092E4042FBF8093F4049093F504A093E4
:102A2000F604B093F704C0900B0110910A0100E086
:102A3000212C312C210180E090E021E030E03D8329
:102A40002C83A981BA812D91BA83A98391110DC0DC
:102A50002C1510F00C948D1DC21608F050C0DC80AF
:102A600081114FC001E091E075C02C1518F088234A
:102A700009F470C081E0C21608F06CC0163008F48A
:102A800042C06C817D816D19710961507109072EF9
:102A9000000C880B990B0E94E41E2EEA37E441E5F6
:102AA00050E40E94991F9B01AC0160E074E284E74E
:102AB00099E40E943A1E0E94AC1E1B012C011330A7
:102AC00009F04CC46C817D816D197109072E000CD1
:102AD000880B990B0E94E41E2EEA37E441E550E48E
:102AE0000E94991F9B01AC0160E074E284E799E4C5
:102AF0000E943A1E20E030E040E05EE323C001E0A7
:102B0000B6CF082FBBCF153009F008C46C817D818A
:102B10006D197109072E000C880B990B0E94E41E99
:102B20002EEA37E441E550E40E94991F9B01AC0175
:102B300060E074E284E799E40E943A1E20E030E00D
:102B400040E05FE30E94991F0E94AC1E1B012C0114
:102B500080E090E02C813D812F5F3F4F3D832C83AF
:102B60002F3F310509F06DCF81E090E09093700820
:102B700080936F0890936E0880936D0880910C018C
:102B8000882309F43EC06091FC047091FD04072E77
:102B9000000C880B990B0E94E41E20E030E040EA14
:102BA00050E40E94991F20E030E04FE753E40E9478
:102BB0003A1E6B017C0120E030E040E250E40E94CC
:102BC000941F1816A4F46091F4047091F504809198
:102BD000F6049091F7040E94E21E0E94AC1E6093DE
:102BE000F0047093F1048093F2049093F30420E0D6
:102BF00030E040E250E4C701B6010E94351E87FF75
:102C00000EC0C201B1010E94E41E0E94AC1E60937E
:102C1000F0047093F1048093F2049093F304809194
:102C2000F0049091F104A091F204B091F304883E75
:102C30009340A105B10594F48DE594E00E94230A28
:102C40006091F0047091F1048091F2049091F3048A
:102C50000E94F70988E494E00E94230A6091F0043E
:102C60007091F1048091F2049091F304693E43E085
:102C700074078105910584F00E94E41E20E030E095
:102C80004AE754E40E943A1E41E050E00E94250ABF
:102C900087E494E00E94230A80910C01882361F16B
:102CA00010926A081092690870926C0860926B0822
:102CB00081E090E09093700880936F0890936E0885
:102CC00080936D086091FC047091FD04072E000C48
:102CD000880B990B0E94E41E20E030E040EA50E4AB
:102CE0000E94991F20E030E04FE753E40E943A1E13
:102CF00041E050E00E94250A80910C0181112CC016
:102D000010926A081092690870926C0860926B08C1
:102D100081E090E09093700880936F0890936E0824
:102D200080936D086091FC047091FD04072E000CE7
:102D3000880B990B0E94E41E2DEC3CEC4CE85FE301
:102D40000E94991F20E030E04FE753E40E943A1EB2
:102D500041E050E00E94250A8BE494E00E94230A9F
:102D600068EC70E080E090E00E9490040E94000413
:102D70008091BD07813009F03FC20E940D0B809108
:102D8000EC048111D0C68DE00E948E030197B1F54D
:102D90004091EA045091EB04052E000C660B770B72
:102DA0008091000190910101A0910201B091030175
:102DB000841B950BA60BB70B809300019093010128
:102DC000A0930201B0930301B7FF08C01092000165
:102DD0001092010110920201109203016091000112
:102DE0007091010180910201909103010E945709A5
:102DF00063E070E080E090E00E9490048BE00E942D
:102E00008E03019721F56091EA047091EB04072E7F
:102E1000000C880B990B0091000110910101209189
:102E2000020130910301600F711F821F931F609395
:102E300000017093010180930201909303010E94AD
:102E4000570963E070E080E090E00E9490048CE01D
:102E50000E948E03019779F463E070E080E090E0D7
:102E60000E9490048091E9048F5F8093E90485308B
:102E700010F01092E904DD24D394D09271081092DE
:102E80006A081092690885E090E090936C0880933E
:102E90006B088DE494E00E94230A60910401709114
:102EA0000501072E000C880B990B0E94E41E20E000
:102EB00030E048EC52E40E94991F20E030E04FE7F8
:102EC00053E40E943A1E42E050E00E94250A82E547
:102ED00094E00E94230A809104019091050123E56A
:102EE000C22EC89EB001C99E700D1124072E000C81
:102EF000880B990B0E94E41E20E030E04FE753E47A
:102F00000E943A1E0E94AC1EEE24E394F12C10E0C5
:102F100000E09B0150E040E070E060E08DE598E06B
:102F20000E944D088091040190910501C89EB00156
:102F3000C99E700D1124072E000C880B990B0E945E
:102F4000E41E20E030E04FE753E40E943A1E0E9466
:102F5000AC1E01E010E09B0141E050E070E060E059
:102F60008DE598E00E944D08809104019091050143
:102F7000C89EB001C99E700D1124072E000C880B4D
:102F8000990B0E94E41E20E030E04FE753E40E94DA
:102F90003A1E0E94AC1E02E010E09B0142E050E0AD
:102FA00070E060E08DE598E00E944D08809104019A
:102FB00090910501C89EB001C99E700D1124072E85
:102FC000000C880B990B0E94E41E20E030E04FE7D4
:102FD00053E40E943A1E0E94AC1E0FE010E09B01D9
:102FE0004FE050E070E060E08DE598E00E944D0811
:102FF0008091040190910501C89EB001C99E700D99
:103000001124072E000C880B990B0E94E41E20E06F
:1030100030E04FE753E40E943A1E0E94AC1E00E1EC
:1030200010E09B0140E150E070E060E08DE598E049
:103030000E944D088091040190910501C89EB00145
:10304000C99E700D1124072E000C880B990B0E944D
:10305000E41E20E030E04FE753E40E943A1E0E9455
:10306000AC1E01E110E09B0141E150E070E060E046
:103070008DE598E00E944D08A5E0B0E0B0936A08A5
:10308000A093690884E190E090936C0880936B08AA
:1030900082E080937108609100017091010180913C
:1030A0000201909103010E94E41E0E94AC1E1B01CC
:1030B0002C01B8EE2B16B3E03B06410451040CF092
:1030C0008AC10E94F709D092710888E494E00E94B6
:1030D000FF0A10926A081092690870926C08609258
:1030E0006B0881E08093710885E594E00E94230AD3
:1030F0008091E904811110C041E050E060E070E08F
:1031000080E89FE30E94250A81E090E09093EB0421
:103110008093EA041092EC048091E904813071F408
:1031200050E040E060E070E080E291E40E94250A17
:103130008AE090E09093EB048093EA048091E904A4
:10314000823071F450E040E060E070E088EC92E49E
:103150000E94250A84E690E09093EB048093EA04B1
:103160008091E904833071F450E040E060E070E069
:103170008AE794E40E94250A88EE93E09093EB049A
:103180008093EA048091E904843029F58AE594E08B
:103190000E94230A6091040170910501072E000C22
:1031A000880B990B0E94E41E20E030E048EC52E4CA
:1031B0000E94991F20E030E04FE753E40E943A1E3E
:1031C00042E050E00E94250A83E594E00E94230A31
:1031D00081E08093EC048FE594E00E94230A6091E3
:1031E000040189E00E9410056CE271E080E090E04B
:1031F0000E9490040E9400048091BD07823009F073
:103200000DC38091EF0481111DC10E940D0B10921E
:103210006E0810926D0821E030E030937008209322
:103220006F080AE010E010936A0800936908109292
:103230006C0810926B0882E694E00E94FF0A41E05D
:1032400050E05093700840936F0850936E0840937D
:103250006D0810936A080093690810936C08009336
:103260006B088DE694E00E94FF0A10936A080093B1
:10327000690884E190E090936C0880936B0884E87F
:1032800094E00E94FF0A10936A08009369088EE197
:1032900090E090936C0880936B088DE894E00E9416
:1032A000FF0A81E090E09093700880936F089093FC
:1032B0006E0880936D0810926A08109269087092E7
:1032C0006C0860926B0864E670E080E090E00E9419
:1032D00090040E9400041B99AAC0A091ED04B09133
:1032E000EE04BA83A983FD01EB59FC4F6081862F60
:1032F00090E090930501809304018AE00E941005FC
:10330000E981FA813196F093EE04E093ED04B097F1
:1033100011F71092EE041092ED04DDCF143009F095
:10332000CECB6C817D816D197109072E000C880B45
:10333000990B0E94E41E2EEA37E441E550E40E9416
:10334000991F9B01AC0160E074E284E799E40E945C
:103350003A1E20E030E040E85EE3F4CB1230F1F0BA
:103360001130E1F01111F4CB8C819D818D199109FF
:10337000E4EFF1E08E9F90018F9F300D9E9F300D06
:103380001124032E000C440B550B60E472E48FE013
:1033900090E00E94492019012A01DACB6C817D81DD
:1033A0006D197109072E000C880B990B0E94E41E01
:1033B0002EEA37E441E550E40E94991F9B01AC01DD
:1033C00060E074E284E799E40E943A1E20E030E075
:1033D00040E05DE3B7CBE8EE2E16E3E03E064104A5
:1033E000510409F476CE0E94E41E20E030E04AE762
:1033F00054E40E943A1E42E050E0F0E12F16F7E25A
:103400003F064104510464F050E040E0F0EA2F161A
:10341000F6E83F06F1E04F06510414F441E050E0B5
:103420000E94250AD092710887E494E050CE8091E2
:10343000EF048F5F8093EF0468EC70E080E090E031
:103440000E9490048091EF04813009F097C00E949F
:103450000D0B21E030E03093700820936F0830931B
:103460006E0820936D080AE010E010936A0800933C
:10347000690810926C0810926B0882E694E00E9432
:10348000FF0A10926E0810926D0841E050E05093D0
:10349000700840936F0810936A08009369081093AE
:1034A0006C0800936B088DE694E00E94FF0A81E0AF
:1034B00090E09093700880936F0890936E088093CB
:1034C0006D0810936A080093690884E190E0909376
:1034D0006C0880936B0884E894E00E94FF0A1093C4
:1034E0006A08009369088EE190E090936C088093DD
:1034F0006B088DE894E00E94FF0AA1E0B0E0B09371
:103500007008A0936F08B0936E08A0936D0864E6EE
:1035100070E080E090E00E9490040E9400041B99FB
:1035200022C0E091ED04F091EE04FA83E983EB5BB5
:10353000FC4F6081862F90E09093050180930401F9
:103540008AE00E94100529813A812F5F3F4F309316
:10355000EE042093ED042032310509F71092EE04B9
:103560001092ED04DCCF8091EF048F5F8093EF0425
:1035700068EC70E080E090E00E9490048091EF049D
:10358000823009F0A0C00E940D0B41E050E0509342
:10359000700840936F0850936E0840936D080AE0DE
:1035A00010E010936A080093690810926C0810925A
:1035B0006B0882E694E00E94FF0A81E090E090931D
:1035C000700880936F0890936E0880936D08109335
:1035D0006A080093690810936C0800936B088DE6E5
:1035E00094E00E94FF0A10926E0810926D08A1E00C
:1035F000B0E0B0937008A0936F0810936A0800932E
:10360000690884E190E090936C0880936B0884E8EB
:1036100094E00E94FF0AE1E0F0E0F0937008E0938C
:103620006F08F0936E08E0936D0810936A0800939A
:1036300069088EE190E090936C0880936B088DE8A8
:1036400094E00E94FF0A21E030E03093700820935C
:103650006F0830936E0820936D0864E670E080E098
:1036600090E00E9490040E9400041B9921C04091A8
:10367000ED045091EE045A834983FA01EB5DFC4F4F
:103680006081862F90E090930501809304018AE089
:103690000E94100589819A8101969093EE0480938F
:1036A000ED04809711F71092EE041092ED04DDCF37
:1036B0008091EF048F5F8093EF0468EC70E080E00E
:1036C00090E00E9490048091EF04833009F0A0C044
:1036D0000E940D0BA1E0B0E0B0937008A0936F08BA
:1036E000B0936E08A0936D080AE010E010936A088A
:1036F0000093690810926C0810926B0882E694E0BF
:103700000E94FF0AE1E0F0E0F0937008E0936F0898
:10371000F0936E08E0936D0810936A0800936908AF
:1037200010936C0800936B088DE694E00E94FF0AEA
:1037300021E030E03093700820936F0830936E08DA
:1037400020936D0810936A080093690884E190E063
:1037500090936C0880936B0884E894E00E94FF0AC1
:1037600010926E0810926D0841E050E0509370087E
:1037700040936F0810936A08009369088EE190E007
:1037800090936C0880936B088DE894E00E94FF0A88
:1037900081E090E09093700880936F0890936E089A
:1037A00080936D0864E670E080E090E00E949004F1
:1037B0000E9400041B9921C0A091ED04B091EE0479
:1037C000BA83A983FD01EB5FFC4F6081862F90E0F7
:1037D00090930501809304018AE00E941005E9811D
:1037E000FA813196F093EE04E093ED04B09711F76F
:1037F0001092EE041092ED04DDCF8091EF048F5F04
:103800008093EF0468EC70E080E090E00E94900408
:103810008091EF04843011F41092EF048091BD0781
:10382000833009F064C10E940D0B81E090E0909319
:10383000700880936F0890936E0880936D082AE05B
:1038400030E030936A082093690810926C08109257
:103850006B088CE194E00E94FF0A4AE050E050932C
:103860006A084093690850936C0840936B088DE98F
:1038700094E00E94FF0A8AE090E090936A088093A7
:10388000690884E190E090936C0880936B088EEA5D
:1038900094E00E94230A60910601709107018091D3
:1038A0000801909109010E94F70980EB94E00E94C1
:1038B000FF0A10926A08109269088EE190E09093D6
:1038C0006C0880936B0882EB94E00E94FF0A8BE007
:1038D0000E948E030197A1F4809106019091070147
:1038E000A0910801B09109018C599F4FAF4FBF4F74
:1038F0008093060190930701A0930801B0930901FA
:103900008DE00E948E034091060150910701609165
:10391000080170910901019761F444565109610948
:103920007109409306015093070160930801709359
:1039300009018091060190910701A0910801B091C1
:103940000901B7FF0CC020E930ED43E050E02093BF
:1039500006013093070140930801509309018091BB
:10396000060190910701A0910801B09109018139E8
:10397000904DA340B10544F010920601109207014A
:1039800010920801109209018CE00E948E030197A9
:1039900009F0A5C0C0900601D0900701E090080191
:1039A000F090090160E079E08DE390E0A7019601D5
:1039B0000E94272021503109410951095695479508
:1039C00037952795E091D007F091D10782E0808369
:1039D000C11441EED406E104F10421F0211550E1B7
:1039E0003507A8F0E091D007F091D107108260E888
:1039F00074E88EE190E0A70196010E9427202150F3
:103A00003109410951095695479537952795E09118
:103A1000CC07F091CD073083E091CE07F091CF072E
:103A200020831092D807E091D407F091D50786E063
:103A30008083E091D207F091D307808180618083F9
:103A4000E091D207F091D307808188608083E09174
:103A5000D207F091D307808180688083E091D207FC
:103A6000F091D30780818F7D80830E940D0B64E6E7
:103A700070E080E090E00E9490040E94000410E05A
:103A800000E01A82198280EC97E00E94B6021816B4
:103A90001906CCF780EC97E00E949402A981BA81C4
:103AA000B0936A08A093690810936C0800936B08A0
:103AB000682F8DE598E00E94A9050E940004E98125
:103AC000FA813696FA83E983E435F10521F4085F3B
:103AD0001F4F1A82198200331105A9F6C6CF64E67A
:103AE00070E080E090E00E9490040E94000480E07A
:103AF00090E0892B11F40C9463100E94C202882379
:103B000011F40C9460100E9400000C945D102111BF
:103B10000C940F11322F0C94161101110C942C15CA
:103B2000902F0C9437158DE00E948E030197B9F405
:103B30008091040190910501019790930501809374
:103B4000040197FF06C08FEF90E0909305018093EA
:103B5000040163E070E080E090E00E9490048BE05C
:103B60000E948E03019709F072C98091040190911F
:103B70000501019690930501809304018F3F910503
:103B800009F00CF45EC9109205011092040159C9A4
:103B90005058BB27AA270E94E01D0C945A1F0E9470
:103BA0004C1F38F00E94531F20F039F49F3F19F446
:103BB00026F40C94491F0EF4E095E7FB0C94431F88
:103BC000E92F0E946B1F58F3BA1762077307840727
:103BD000950720F079F4A6F50C948D1F0EF4E0956E
:103BE0000B2EBA2FA02D0B01B90190010C01CA01B7
:103BF000A0011124FF27591B99F0593F50F4503E62
:103C000068F11A16F040A22F232F342F4427585F53
:103C1000F3CF469537952795A795F0405395C9F76B
:103C20007EF41F16BA0B620B730B840BBAF0915023
:103C3000A1F0FF0FBB1F661F771F881FC2F70EC0C2
:103C4000BA0F621F731F841F48F487957795679595
:103C5000B795F7959E3F08F0B0CF9395880F08F081
:103C60009927EE0F9795879508950E941F1F08F4D6
:103C700081E008950E944E1E0C945A1F0E94531F0B
:103C800058F00E944C1F40F029F45F3F29F00C943B
:103C9000431F51110C948E1F0C94491F0E946B1FDF
:103CA00068F39923B1F3552391F3951B550BBB276B
:103CB000AA2762177307840738F09F5F5F4F220FB0
:103CC000331F441FAA1FA9F335D00E2E3AF0E0E8A7
:103CD00032D091505040E695001CCAF72BD0FE2FF1
:103CE00029D0660F771F881FBB1F26173707480785
:103CF000AB07B0E809F0BB0B802DBF01FF2793583D
:103D00005F4F3AF09E3F510578F00C94431F0C949E
:103D10008E1F5F3FE4F3983ED4F3869577956795C1
:103D2000B795F7959F5FC9F7880F911D9695879571
:103D300097F90895E1E0660F771F881FBB1F621790
:103D400073078407BA0720F0621B730B840BBA0B4E
:103D5000EE1F88F7E09508950E94B31E6894B11194
:103D60000C948E1F08950E94731F88F09F5798F03F
:103D7000B92F9927B751B0F0E1F0660F771F881F70
:103D8000991F1AF0BA95C9F714C0B13091F00E948A
:103D90008D1FB1E008950C948D1F672F782F882711
:103DA000B85F39F0B93FCCF3869577956795B395B1
:103DB000D9F73EF490958095709561957F4F8F4F20
:103DC0009F4F0895E89409C097FB3EF49095809525
:103DD000709561957F4F8F4F9F4F9923A9F0F92FD1
:103DE00096E9BB279395F695879577956795B7954F
:103DF000F111F8CFFAF4BB0F11F460FF1BC06F5F35
:103E00007F4F8F4F9F4F16C0882311F096E911C046
:103E1000772321F09EE8872F762F05C0662371F067
:103E200096E8862F70E060E02AF09A95660F771F7B
:103E3000881FDAF7880F9695879597F90895990F57
:103E40000008550FAA0BE0E8FEEF16161706E80764
:103E5000F907C0F012161306E407F50798F0621B85
:103E6000730B840B950B39F40A2661F0232B242B5A
:103E7000252B21F408950A2609F4A140A6958FEF79
:103E8000811D811D089597F99F6780E870E060E0CB
:103E900008959FEF80EC089500240A9416161706E3
:103EA00018060906089500240A941216130614062B
:103EB00005060895092E0394000C11F4882352F08E
:103EC000BB0F40F4BF2B11F460FF04C06F5F7F4F46
:103ED0008F4F9F4F089557FD9058440F551F59F02D
:103EE0005F3F71F04795880F97FB991F61F09F3FE7
:103EF00079F087950895121613061406551FF2CF10
:103F00004695F1DF08C0161617061806991FF1CF5F
:103F100086957105610508940895E894BB27662786
:103F20007727CB0197F908950E941F1F08F48FEFA0
:103F300008950E94AC1F0C945A1F0E944C1F38F029
:103F40000E94531F20F0952311F00C94431F0C94F2
:103F5000491F11240C948E1F0E946B1F70F3959FB4
:103F6000C1F3950F50E0551F629FF001729FBB2770
:103F7000F00DB11D639FAA27F00DB11DAA1F649F0C
:103F80006627B00DA11D661F829F2227B00DA11DBF
:103F9000621F739FB00DA11D621F839FA00D611D45
:103FA000221F749F3327A00D611D231F849F600D66
:103FB000211D822F762F6A2F11249F5750409AF08F
:103FC000F1F088234AF0EE0FFF1FBB1F661F771F1B
:103FD000881F91505040A9F79E3F510580F00C94E6
:103FE000431F0C948E1F5F3FE4F3983ED4F38695F5
:103FF00077956795B795F795E7959F5FC1F7FE2B86
:10400000880F911D9695879597F908950E941F1F17
:10401000880B990B0895DB018F939F930E94772063
:10402000BF91AF91A29F800D911DA39F900DB29F54
:10403000900D11240895991B79E004C0991F9617DB
:1040400008F0961B881F7A95C9F780950895A1E21C
:104050001A2EAA1BBB1BFD010DC0AA1FBB1FEE1F02
:10406000FF1FA217B307E407F50720F0A21BB30B4D
:10407000E40BF50B661F771F881F991F1A9469F7C9
:1040800060957095809590959B01AC01BD01CF0125
:104090000895052E97FB1EF400940E94602057FDA2
:1040A00007D00E94272007FC03D04EF40C94602018
:1040B00050954095309521953F4F4F4F5F4F089554
:1040C00090958095709561957F4F8F4F9F4F089584
:1040D000A29FB001B39FC001A39F700D811D112449
:1040E000911DB29F700D811D1124911D08950E9494
:1040F0006820A59F900DB49F900DA49F800D911DE9
:1041000011240895EE0FFF1F0590F491E02D0994FE
:0E41100081E090E0F8940C948D20F894FFCF9D
:10411E00F4010000800080250000061E0100000052
:10412E000000000000000000000000000000000081
:10413E000000000000000000000000000000000071
:10414E00000000C0E0F0F8FCFCFEFFFCE000000008
:10415E000000000000000000000000000000000051
:10416E000000000000000000000000000000000041
:10417E000000000000000000000000000000000031
:10418E000000F8F8F8F8F8F8F8F8F8F8F8F8F0F0A1
:10419E00E0E0C080C0FCFFFFFFFF7F3F7FFFFFFF1F
:1041AE00FFFF000000000000000000000000000003
:1041BE0000000000000000000000000000000000F1
:1041CE0000000000000000000000000000000000E1
:1041DE00000000000000000F1F3F7FFFFFFFFFFFEA
:1041EE00FFFFFFE7C7C7878F9F9FFFFFFFC1C0E09D
:1041FE00FCFFFFFFFFFFFCFCFCFCFEFEFEFCFCF8E0
:10420E00F8F0E0C0C0000000000000000000000058
:10421E000000000000000000000000000000000090
:10422E00000000000000000000000000000080C040
:10423E00E0F1FBFFFFFFFFFF7F1F0F0F87E7FFFF81
:10424E00FF1F1F3FF9F8F8F8F8F8F8FDFFFFFFFF22
:10425E00FFFFFFFFFF7F3F0F070100000000000080
:10426E000000000000000000000000000000000040
:10427E000000000000000000000000000000000030
:10428E00F0FEFFFFFFFFFFFFFFFFFFFFFE7E3F3F42
:10429E000F1FFFFFFFFCF0E0F1FFFFFFFFFFFCF041
:1042AE0001010101010101010000000000000000F8
:1042BE0000000000000000000000000000000000F0
:1042CE0000000000000000000000000000000000E0
:1042DE0000000000030303030303030301010101B4
:1042EE0000000000000000030F1F3F7F7FFFFFFF55
:1042FE00FF7F7F1F03000000000000000000000091
:10430E00000000000000000000000000000000009F
:10431E000000000000FAF6EEE6DED6CEC6BEB6AE61
:10432E00A69E968E867E766E665E564E463E3629E4
:10433E002119110901010911192129313941495157
:10434E00596169717981899199A1A9B1B9C1C9D10F
:10435E00D9E1EBF5FF0112233445566778899AAB04
:10436E00BCCDDEEFFFEFDFCFBFAF9F8F7F6F5F4F15
:10437E003F2F1F0F0101060F1D30455C758FA8BF23
:10438E00D4E5F3FBFFFEF8EDDECBB59C836A513B23
:10439E0027160A03010000010008002000400080DB
:1043AE0000000100040000010008004000000100B0
:1043BE000400000000F802580285024503B602947C
:1043CE0002A80200000000A9055802FB08FA0880A6
:1043DE00054D0838072207FE07ED06D006A8056E24
:1043EE00616E00696E66006F7666000D0A00D09FE2
:1043FE00D183D0BBD18CD182D0BED181D0BAD0BE28
:10440E00D0BF00D093D0B5D0BDD0B5D180D0B0D173
:10441E0082D0BED18000444453D0B3D0B5D0BDD0ED
:10442E00B5D180D0B0D182D0BED18000D0A2D0B5CF
:10443E00D180D0BCD0B8D0BDD0B0D0BB00D091D040
:10444E00B0D182D0B0D180D0B5D18F3D00D0920006
:10445E00312E31002050004B487A00560050574DF7
:10446E003D002025003E3E58200050574D20003C78
:10447E003C00D0A1D0B8D0BDD183D18100D0A2D183
:10448E0080D0B5D183D0B3D0BED0BBD18CD0BDD06F
:10449E00B8D0BA00D09FD0B8D0BBD0B000D09FD08B
:1044AE00B8D0BBD0B020D09ED0B1D18000D0A1D09A
:1044BE00BAD0BED180D0BED181D182D18C002D0098
:1044CE002B00D09DD0B0D0B6D0BCD0B820D09ED0CE
:0E44DE009A2DD181D182D0B0D180D182000040
:00000001FF
